{
	"contracts/Owner.sol": {
		"Owner": {
			"abi": [
				{
					"inputs": [],
					"stateMutability": "nonpayable",
					"type": "constructor"
				},
				{
					"inputs": [],
					"name": "getNombre",
					"outputs": [
						{
							"internalType": "uint256",
							"name": "",
							"type": "uint256"
						}
					],
					"stateMutability": "view",
					"type": "function"
				},
				{
					"inputs": [
						{
							"internalType": "uint256",
							"name": "_nombre",
							"type": "uint256"
						}
					],
					"name": "setNombre",
					"outputs": [],
					"stateMutability": "nonpayable",
					"type": "function"
				},
				{
					"inputs": [
						{
							"internalType": "bool",
							"name": "_paused",
							"type": "bool"
						}
					],
					"name": "setPaused",
					"outputs": [],
					"stateMutability": "nonpayable",
					"type": "function"
				}
			],
			"devdoc": {
				"kind": "dev",
				"methods": {},
				"version": 1
			},
			"evm": {
				"assembly": "    /* \"contracts/Owner.sol\":24:604  contract Owner { ... */\n  mstore(0x40, 0x80)\n    /* \"contracts/Owner.sol\":102:152  constructor() { ... */\n  callvalue\n  dup1\n  iszero\n  tag_1\n  jumpi\n  0x00\n  dup1\n  revert\ntag_1:\n  pop\n    /* \"contracts/Owner.sol\":135:145  msg.sender */\n  caller\n    /* \"contracts/Owner.sol\":127:132  owner */\n  0x00\n  dup1\n    /* \"contracts/Owner.sol\":127:145  owner = msg.sender */\n  0x0100\n  exp\n  dup2\n  sload\n  dup2\n  0xffffffffffffffffffffffffffffffffffffffff\n  mul\n  not\n  and\n  swap1\n  dup4\n  0xffffffffffffffffffffffffffffffffffffffff\n  and\n  mul\n  or\n  swap1\n  sstore\n  pop\n    /* \"contracts/Owner.sol\":24:604  contract Owner { ... */\n  dataSize(sub_0)\n  dup1\n  dataOffset(sub_0)\n  0x00\n  codecopy\n  0x00\n  return\nstop\n\nsub_0: assembly {\n        /* \"contracts/Owner.sol\":24:604  contract Owner { ... */\n      mstore(0x40, 0x80)\n      callvalue\n      dup1\n      iszero\n      tag_1\n      jumpi\n      0x00\n      dup1\n      revert\n    tag_1:\n      pop\n      jumpi(tag_2, lt(calldatasize, 0x04))\n      shr(0xe0, calldataload(0x00))\n      dup1\n      0x16c38b3c\n      eq\n      tag_3\n      jumpi\n      dup1\n      0xd75cbf9b\n      eq\n      tag_4\n      jumpi\n      dup1\n      0xfdf37e35\n      eq\n      tag_5\n      jumpi\n    tag_2:\n      0x00\n      dup1\n      revert\n        /* \"contracts/Owner.sol\":158:287  function setPaused(bool _paused) public { ... */\n    tag_3:\n      tag_6\n      0x04\n      dup1\n      calldatasize\n      sub\n      dup2\n      add\n      swap1\n      tag_7\n      swap2\n      swap1\n      tag_8\n      jump\t// in\n    tag_7:\n      tag_9\n      jump\t// in\n    tag_6:\n      stop\n        /* \"contracts/Owner.sol\":476:602  function getNombre() public view returns(uint) { ... */\n    tag_4:\n      tag_10\n      tag_11\n      jump\t// in\n    tag_10:\n      mload(0x40)\n      tag_12\n      swap2\n      swap1\n      tag_13\n      jump\t// in\n    tag_12:\n      mload(0x40)\n      dup1\n      swap2\n      sub\n      swap1\n      return\n        /* \"contracts/Owner.sol\":293:470  function setNombre(uint _nombre) public { ... */\n    tag_5:\n      tag_14\n      0x04\n      dup1\n      calldatasize\n      sub\n      dup2\n      add\n      swap1\n      tag_15\n      swap2\n      swap1\n      tag_16\n      jump\t// in\n    tag_15:\n      tag_17\n      jump\t// in\n    tag_14:\n      stop\n        /* \"contracts/Owner.sol\":158:287  function setPaused(bool _paused) public { ... */\n    tag_9:\n        /* \"contracts/Owner.sol\":231:236  owner */\n      0x00\n      dup1\n      sload\n      swap1\n      0x0100\n      exp\n      swap1\n      div\n      0xffffffffffffffffffffffffffffffffffffffff\n      and\n        /* \"contracts/Owner.sol\":217:236  msg.sender == owner */\n      0xffffffffffffffffffffffffffffffffffffffff\n      and\n        /* \"contracts/Owner.sol\":217:227  msg.sender */\n      caller\n        /* \"contracts/Owner.sol\":217:236  msg.sender == owner */\n      0xffffffffffffffffffffffffffffffffffffffff\n      and\n      eq\n        /* \"contracts/Owner.sol\":209:254  require(msg.sender == owner, 'not the owner') */\n      tag_19\n      jumpi\n      mload(0x40)\n      0x08c379a000000000000000000000000000000000000000000000000000000000\n      dup2\n      mstore\n      0x04\n      add\n      tag_20\n      swap1\n      tag_21\n      jump\t// in\n    tag_20:\n      mload(0x40)\n      dup1\n      swap2\n      sub\n      swap1\n      revert\n    tag_19:\n        /* \"contracts/Owner.sol\":273:280  _paused */\n      dup1\n        /* \"contracts/Owner.sol\":264:270  paused */\n      0x00\n      0x14\n        /* \"contracts/Owner.sol\":264:280  paused = _paused */\n      0x0100\n      exp\n      dup2\n      sload\n      dup2\n      0xff\n      mul\n      not\n      and\n      swap1\n      dup4\n      iszero\n      iszero\n      mul\n      or\n      swap1\n      sstore\n      pop\n        /* \"contracts/Owner.sol\":158:287  function setPaused(bool _paused) public { ... */\n      pop\n      jump\t// out\n        /* \"contracts/Owner.sol\":476:602  function getNombre() public view returns(uint) { ... */\n    tag_11:\n        /* \"contracts/Owner.sol\":517:521  uint */\n      0x00\n        /* \"contracts/Owner.sol\":543:549  paused */\n      dup1\n      0x14\n      swap1\n      sload\n      swap1\n      0x0100\n      exp\n      swap1\n      div\n      0xff\n      and\n        /* \"contracts/Owner.sol\":542:549  !paused */\n      iszero\n        /* \"contracts/Owner.sol\":534:572  require(!paused, \"Contract is paused\") */\n      tag_23\n      jumpi\n      mload(0x40)\n      0x08c379a000000000000000000000000000000000000000000000000000000000\n      dup2\n      mstore\n      0x04\n      add\n      tag_24\n      swap1\n      tag_25\n      jump\t// in\n    tag_24:\n      mload(0x40)\n      dup1\n      swap2\n      sub\n      swap1\n      revert\n    tag_23:\n        /* \"contracts/Owner.sol\":589:595  nombre */\n      sload(0x01)\n        /* \"contracts/Owner.sol\":582:595  return nombre */\n      swap1\n      pop\n        /* \"contracts/Owner.sol\":476:602  function getNombre() public view returns(uint) { ... */\n      swap1\n      jump\t// out\n        /* \"contracts/Owner.sol\":293:470  function setNombre(uint _nombre) public { ... */\n    tag_17:\n        /* \"contracts/Owner.sol\":353:359  paused */\n      0x00\n      0x14\n      swap1\n      sload\n      swap1\n      0x0100\n      exp\n      swap1\n      div\n      0xff\n      and\n        /* \"contracts/Owner.sol\":352:359  !paused */\n      iszero\n        /* \"contracts/Owner.sol\":344:382  require(!paused, \"Contract is paused\") */\n      tag_27\n      jumpi\n      mload(0x40)\n      0x08c379a000000000000000000000000000000000000000000000000000000000\n      dup2\n      mstore\n      0x04\n      add\n      tag_28\n      swap1\n      tag_25\n      jump\t// in\n    tag_28:\n      mload(0x40)\n      dup1\n      swap2\n      sub\n      swap1\n      revert\n    tag_27:\n        /* \"contracts/Owner.sol\":414:419  owner */\n      0x00\n      dup1\n      sload\n      swap1\n      0x0100\n      exp\n      swap1\n      div\n      0xffffffffffffffffffffffffffffffffffffffff\n      and\n        /* \"contracts/Owner.sol\":400:419  msg.sender == owner */\n      0xffffffffffffffffffffffffffffffffffffffff\n      and\n        /* \"contracts/Owner.sol\":400:410  msg.sender */\n      caller\n        /* \"contracts/Owner.sol\":400:419  msg.sender == owner */\n      0xffffffffffffffffffffffffffffffffffffffff\n      and\n      eq\n        /* \"contracts/Owner.sol\":392:437  require(msg.sender == owner, 'Not the owner') */\n      tag_29\n      jumpi\n      mload(0x40)\n      0x08c379a000000000000000000000000000000000000000000000000000000000\n      dup2\n      mstore\n      0x04\n      add\n      tag_30\n      swap1\n      tag_31\n      jump\t// in\n    tag_30:\n      mload(0x40)\n      dup1\n      swap2\n      sub\n      swap1\n      revert\n    tag_29:\n        /* \"contracts/Owner.sol\":456:463  _nombre */\n      dup1\n        /* \"contracts/Owner.sol\":447:453  nombre */\n      0x01\n        /* \"contracts/Owner.sol\":447:463  nombre = _nombre */\n      dup2\n      swap1\n      sstore\n      pop\n        /* \"contracts/Owner.sol\":293:470  function setNombre(uint _nombre) public { ... */\n      pop\n      jump\t// out\n        /* \"#utility.yul\":7:140   */\n    tag_33:\n        /* \"#utility.yul\":50:55   */\n      0x00\n        /* \"#utility.yul\":88:94   */\n      dup2\n        /* \"#utility.yul\":75:95   */\n      calldataload\n        /* \"#utility.yul\":66:95   */\n      swap1\n      pop\n        /* \"#utility.yul\":104:134   */\n      tag_35\n        /* \"#utility.yul\":128:133   */\n      dup2\n        /* \"#utility.yul\":104:134   */\n      tag_36\n      jump\t// in\n    tag_35:\n        /* \"#utility.yul\":7:140   */\n      swap3\n      swap2\n      pop\n      pop\n      jump\t// out\n        /* \"#utility.yul\":146:285   */\n    tag_37:\n        /* \"#utility.yul\":192:197   */\n      0x00\n        /* \"#utility.yul\":230:236   */\n      dup2\n        /* \"#utility.yul\":217:237   */\n      calldataload\n        /* \"#utility.yul\":208:237   */\n      swap1\n      pop\n        /* \"#utility.yul\":246:279   */\n      tag_39\n        /* \"#utility.yul\":273:278   */\n      dup2\n        /* \"#utility.yul\":246:279   */\n      tag_40\n      jump\t// in\n    tag_39:\n        /* \"#utility.yul\":146:285   */\n      swap3\n      swap2\n      pop\n      pop\n      jump\t// out\n        /* \"#utility.yul\":291:614   */\n    tag_8:\n        /* \"#utility.yul\":347:353   */\n      0x00\n        /* \"#utility.yul\":396:398   */\n      0x20\n        /* \"#utility.yul\":384:393   */\n      dup3\n        /* \"#utility.yul\":375:382   */\n      dup5\n        /* \"#utility.yul\":371:394   */\n      sub\n        /* \"#utility.yul\":367:399   */\n      slt\n        /* \"#utility.yul\":364:483   */\n      iszero\n      tag_42\n      jumpi\n        /* \"#utility.yul\":402:481   */\n      tag_43\n      tag_44\n      jump\t// in\n    tag_43:\n        /* \"#utility.yul\":364:483   */\n    tag_42:\n        /* \"#utility.yul\":522:523   */\n      0x00\n        /* \"#utility.yul\":547:597   */\n      tag_45\n        /* \"#utility.yul\":589:596   */\n      dup5\n        /* \"#utility.yul\":580:586   */\n      dup3\n        /* \"#utility.yul\":569:578   */\n      dup6\n        /* \"#utility.yul\":565:587   */\n      add\n        /* \"#utility.yul\":547:597   */\n      tag_33\n      jump\t// in\n    tag_45:\n        /* \"#utility.yul\":537:597   */\n      swap2\n      pop\n        /* \"#utility.yul\":493:607   */\n      pop\n        /* \"#utility.yul\":291:614   */\n      swap3\n      swap2\n      pop\n      pop\n      jump\t// out\n        /* \"#utility.yul\":620:949   */\n    tag_16:\n        /* \"#utility.yul\":679:685   */\n      0x00\n        /* \"#utility.yul\":728:730   */\n      0x20\n        /* \"#utility.yul\":716:725   */\n      dup3\n        /* \"#utility.yul\":707:714   */\n      dup5\n        /* \"#utility.yul\":703:726   */\n      sub\n        /* \"#utility.yul\":699:731   */\n      slt\n        /* \"#utility.yul\":696:815   */\n      iszero\n      tag_47\n      jumpi\n        /* \"#utility.yul\":734:813   */\n      tag_48\n      tag_44\n      jump\t// in\n    tag_48:\n        /* \"#utility.yul\":696:815   */\n    tag_47:\n        /* \"#utility.yul\":854:855   */\n      0x00\n        /* \"#utility.yul\":879:932   */\n      tag_49\n        /* \"#utility.yul\":924:931   */\n      dup5\n        /* \"#utility.yul\":915:921   */\n      dup3\n        /* \"#utility.yul\":904:913   */\n      dup6\n        /* \"#utility.yul\":900:922   */\n      add\n        /* \"#utility.yul\":879:932   */\n      tag_37\n      jump\t// in\n    tag_49:\n        /* \"#utility.yul\":869:932   */\n      swap2\n      pop\n        /* \"#utility.yul\":825:942   */\n      pop\n        /* \"#utility.yul\":620:949   */\n      swap3\n      swap2\n      pop\n      pop\n      jump\t// out\n        /* \"#utility.yul\":955:1321   */\n    tag_50:\n        /* \"#utility.yul\":1097:1100   */\n      0x00\n        /* \"#utility.yul\":1118:1185   */\n      tag_52\n        /* \"#utility.yul\":1182:1184   */\n      0x0d\n        /* \"#utility.yul\":1177:1180   */\n      dup4\n        /* \"#utility.yul\":1118:1185   */\n      tag_53\n      jump\t// in\n    tag_52:\n        /* \"#utility.yul\":1111:1185   */\n      swap2\n      pop\n        /* \"#utility.yul\":1194:1287   */\n      tag_54\n        /* \"#utility.yul\":1283:1286   */\n      dup3\n        /* \"#utility.yul\":1194:1287   */\n      tag_55\n      jump\t// in\n    tag_54:\n        /* \"#utility.yul\":1312:1314   */\n      0x20\n        /* \"#utility.yul\":1307:1310   */\n      dup3\n        /* \"#utility.yul\":1303:1315   */\n      add\n        /* \"#utility.yul\":1296:1315   */\n      swap1\n      pop\n        /* \"#utility.yul\":955:1321   */\n      swap2\n      swap1\n      pop\n      jump\t// out\n        /* \"#utility.yul\":1327:1693   */\n    tag_56:\n        /* \"#utility.yul\":1469:1472   */\n      0x00\n        /* \"#utility.yul\":1490:1557   */\n      tag_58\n        /* \"#utility.yul\":1554:1556   */\n      0x0d\n        /* \"#utility.yul\":1549:1552   */\n      dup4\n        /* \"#utility.yul\":1490:1557   */\n      tag_53\n      jump\t// in\n    tag_58:\n        /* \"#utility.yul\":1483:1557   */\n      swap2\n      pop\n        /* \"#utility.yul\":1566:1659   */\n      tag_59\n        /* \"#utility.yul\":1655:1658   */\n      dup3\n        /* \"#utility.yul\":1566:1659   */\n      tag_60\n      jump\t// in\n    tag_59:\n        /* \"#utility.yul\":1684:1686   */\n      0x20\n        /* \"#utility.yul\":1679:1682   */\n      dup3\n        /* \"#utility.yul\":1675:1687   */\n      add\n        /* \"#utility.yul\":1668:1687   */\n      swap1\n      pop\n        /* \"#utility.yul\":1327:1693   */\n      swap2\n      swap1\n      pop\n      jump\t// out\n        /* \"#utility.yul\":1699:2065   */\n    tag_61:\n        /* \"#utility.yul\":1841:1844   */\n      0x00\n        /* \"#utility.yul\":1862:1929   */\n      tag_63\n        /* \"#utility.yul\":1926:1928   */\n      0x12\n        /* \"#utility.yul\":1921:1924   */\n      dup4\n        /* \"#utility.yul\":1862:1929   */\n      tag_53\n      jump\t// in\n    tag_63:\n        /* \"#utility.yul\":1855:1929   */\n      swap2\n      pop\n        /* \"#utility.yul\":1938:2031   */\n      tag_64\n        /* \"#utility.yul\":2027:2030   */\n      dup3\n        /* \"#utility.yul\":1938:2031   */\n      tag_65\n      jump\t// in\n    tag_64:\n        /* \"#utility.yul\":2056:2058   */\n      0x20\n        /* \"#utility.yul\":2051:2054   */\n      dup3\n        /* \"#utility.yul\":2047:2059   */\n      add\n        /* \"#utility.yul\":2040:2059   */\n      swap1\n      pop\n        /* \"#utility.yul\":1699:2065   */\n      swap2\n      swap1\n      pop\n      jump\t// out\n        /* \"#utility.yul\":2071:2189   */\n    tag_66:\n        /* \"#utility.yul\":2158:2182   */\n      tag_68\n        /* \"#utility.yul\":2176:2181   */\n      dup2\n        /* \"#utility.yul\":2158:2182   */\n      tag_69\n      jump\t// in\n    tag_68:\n        /* \"#utility.yul\":2153:2156   */\n      dup3\n        /* \"#utility.yul\":2146:2183   */\n      mstore\n        /* \"#utility.yul\":2071:2189   */\n      pop\n      pop\n      jump\t// out\n        /* \"#utility.yul\":2195:2614   */\n    tag_21:\n        /* \"#utility.yul\":2361:2365   */\n      0x00\n        /* \"#utility.yul\":2399:2401   */\n      0x20\n        /* \"#utility.yul\":2388:2397   */\n      dup3\n        /* \"#utility.yul\":2384:2402   */\n      add\n        /* \"#utility.yul\":2376:2402   */\n      swap1\n      pop\n        /* \"#utility.yul\":2448:2457   */\n      dup2\n        /* \"#utility.yul\":2442:2446   */\n      dup2\n        /* \"#utility.yul\":2438:2458   */\n      sub\n        /* \"#utility.yul\":2434:2435   */\n      0x00\n        /* \"#utility.yul\":2423:2432   */\n      dup4\n        /* \"#utility.yul\":2419:2436   */\n      add\n        /* \"#utility.yul\":2412:2459   */\n      mstore\n        /* \"#utility.yul\":2476:2607   */\n      tag_71\n        /* \"#utility.yul\":2602:2606   */\n      dup2\n        /* \"#utility.yul\":2476:2607   */\n      tag_50\n      jump\t// in\n    tag_71:\n        /* \"#utility.yul\":2468:2607   */\n      swap1\n      pop\n        /* \"#utility.yul\":2195:2614   */\n      swap2\n      swap1\n      pop\n      jump\t// out\n        /* \"#utility.yul\":2620:3039   */\n    tag_31:\n        /* \"#utility.yul\":2786:2790   */\n      0x00\n        /* \"#utility.yul\":2824:2826   */\n      0x20\n        /* \"#utility.yul\":2813:2822   */\n      dup3\n        /* \"#utility.yul\":2809:2827   */\n      add\n        /* \"#utility.yul\":2801:2827   */\n      swap1\n      pop\n        /* \"#utility.yul\":2873:2882   */\n      dup2\n        /* \"#utility.yul\":2867:2871   */\n      dup2\n        /* \"#utility.yul\":2863:2883   */\n      sub\n        /* \"#utility.yul\":2859:2860   */\n      0x00\n        /* \"#utility.yul\":2848:2857   */\n      dup4\n        /* \"#utility.yul\":2844:2861   */\n      add\n        /* \"#utility.yul\":2837:2884   */\n      mstore\n        /* \"#utility.yul\":2901:3032   */\n      tag_73\n        /* \"#utility.yul\":3027:3031   */\n      dup2\n        /* \"#utility.yul\":2901:3032   */\n      tag_56\n      jump\t// in\n    tag_73:\n        /* \"#utility.yul\":2893:3032   */\n      swap1\n      pop\n        /* \"#utility.yul\":2620:3039   */\n      swap2\n      swap1\n      pop\n      jump\t// out\n        /* \"#utility.yul\":3045:3464   */\n    tag_25:\n        /* \"#utility.yul\":3211:3215   */\n      0x00\n        /* \"#utility.yul\":3249:3251   */\n      0x20\n        /* \"#utility.yul\":3238:3247   */\n      dup3\n        /* \"#utility.yul\":3234:3252   */\n      add\n        /* \"#utility.yul\":3226:3252   */\n      swap1\n      pop\n        /* \"#utility.yul\":3298:3307   */\n      dup2\n        /* \"#utility.yul\":3292:3296   */\n      dup2\n        /* \"#utility.yul\":3288:3308   */\n      sub\n        /* \"#utility.yul\":3284:3285   */\n      0x00\n        /* \"#utility.yul\":3273:3282   */\n      dup4\n        /* \"#utility.yul\":3269:3286   */\n      add\n        /* \"#utility.yul\":3262:3309   */\n      mstore\n        /* \"#utility.yul\":3326:3457   */\n      tag_75\n        /* \"#utility.yul\":3452:3456   */\n      dup2\n        /* \"#utility.yul\":3326:3457   */\n      tag_61\n      jump\t// in\n    tag_75:\n        /* \"#utility.yul\":3318:3457   */\n      swap1\n      pop\n        /* \"#utility.yul\":3045:3464   */\n      swap2\n      swap1\n      pop\n      jump\t// out\n        /* \"#utility.yul\":3470:3692   */\n    tag_13:\n        /* \"#utility.yul\":3563:3567   */\n      0x00\n        /* \"#utility.yul\":3601:3603   */\n      0x20\n        /* \"#utility.yul\":3590:3599   */\n      dup3\n        /* \"#utility.yul\":3586:3604   */\n      add\n        /* \"#utility.yul\":3578:3604   */\n      swap1\n      pop\n        /* \"#utility.yul\":3614:3685   */\n      tag_77\n        /* \"#utility.yul\":3682:3683   */\n      0x00\n        /* \"#utility.yul\":3671:3680   */\n      dup4\n        /* \"#utility.yul\":3667:3684   */\n      add\n        /* \"#utility.yul\":3658:3664   */\n      dup5\n        /* \"#utility.yul\":3614:3685   */\n      tag_66\n      jump\t// in\n    tag_77:\n        /* \"#utility.yul\":3470:3692   */\n      swap3\n      swap2\n      pop\n      pop\n      jump\t// out\n        /* \"#utility.yul\":3779:3948   */\n    tag_53:\n        /* \"#utility.yul\":3863:3874   */\n      0x00\n        /* \"#utility.yul\":3897:3903   */\n      dup3\n        /* \"#utility.yul\":3892:3895   */\n      dup3\n        /* \"#utility.yul\":3885:3904   */\n      mstore\n        /* \"#utility.yul\":3937:3941   */\n      0x20\n        /* \"#utility.yul\":3932:3935   */\n      dup3\n        /* \"#utility.yul\":3928:3942   */\n      add\n        /* \"#utility.yul\":3913:3942   */\n      swap1\n      pop\n        /* \"#utility.yul\":3779:3948   */\n      swap3\n      swap2\n      pop\n      pop\n      jump\t// out\n        /* \"#utility.yul\":3954:4044   */\n    tag_81:\n        /* \"#utility.yul\":3988:3995   */\n      0x00\n        /* \"#utility.yul\":4031:4036   */\n      dup2\n        /* \"#utility.yul\":4024:4037   */\n      iszero\n        /* \"#utility.yul\":4017:4038   */\n      iszero\n        /* \"#utility.yul\":4006:4038   */\n      swap1\n      pop\n        /* \"#utility.yul\":3954:4044   */\n      swap2\n      swap1\n      pop\n      jump\t// out\n        /* \"#utility.yul\":4050:4127   */\n    tag_69:\n        /* \"#utility.yul\":4087:4094   */\n      0x00\n        /* \"#utility.yul\":4116:4121   */\n      dup2\n        /* \"#utility.yul\":4105:4121   */\n      swap1\n      pop\n        /* \"#utility.yul\":4050:4127   */\n      swap2\n      swap1\n      pop\n      jump\t// out\n        /* \"#utility.yul\":4256:4373   */\n    tag_44:\n        /* \"#utility.yul\":4365:4366   */\n      0x00\n        /* \"#utility.yul\":4362:4363   */\n      dup1\n        /* \"#utility.yul\":4355:4367   */\n      revert\n        /* \"#utility.yul\":4379:4542   */\n    tag_55:\n        /* \"#utility.yul\":4519:4534   */\n      0x6e6f7420746865206f776e657200000000000000000000000000000000000000\n        /* \"#utility.yul\":4515:4516   */\n      0x00\n        /* \"#utility.yul\":4507:4513   */\n      dup3\n        /* \"#utility.yul\":4503:4517   */\n      add\n        /* \"#utility.yul\":4496:4535   */\n      mstore\n        /* \"#utility.yul\":4379:4542   */\n      pop\n      jump\t// out\n        /* \"#utility.yul\":4548:4711   */\n    tag_60:\n        /* \"#utility.yul\":4688:4703   */\n      0x4e6f7420746865206f776e657200000000000000000000000000000000000000\n        /* \"#utility.yul\":4684:4685   */\n      0x00\n        /* \"#utility.yul\":4676:4682   */\n      dup3\n        /* \"#utility.yul\":4672:4686   */\n      add\n        /* \"#utility.yul\":4665:4704   */\n      mstore\n        /* \"#utility.yul\":4548:4711   */\n      pop\n      jump\t// out\n        /* \"#utility.yul\":4717:4885   */\n    tag_65:\n        /* \"#utility.yul\":4857:4877   */\n      0x436f6e7472616374206973207061757365640000000000000000000000000000\n        /* \"#utility.yul\":4853:4854   */\n      0x00\n        /* \"#utility.yul\":4845:4851   */\n      dup3\n        /* \"#utility.yul\":4841:4855   */\n      add\n        /* \"#utility.yul\":4834:4878   */\n      mstore\n        /* \"#utility.yul\":4717:4885   */\n      pop\n      jump\t// out\n        /* \"#utility.yul\":4891:5007   */\n    tag_36:\n        /* \"#utility.yul\":4961:4982   */\n      tag_91\n        /* \"#utility.yul\":4976:4981   */\n      dup2\n        /* \"#utility.yul\":4961:4982   */\n      tag_81\n      jump\t// in\n    tag_91:\n        /* \"#utility.yul\":4954:4959   */\n      dup2\n        /* \"#utility.yul\":4951:4983   */\n      eq\n        /* \"#utility.yul\":4941:5001   */\n      tag_92\n      jumpi\n        /* \"#utility.yul\":4997:4998   */\n      0x00\n        /* \"#utility.yul\":4994:4995   */\n      dup1\n        /* \"#utility.yul\":4987:4999   */\n      revert\n        /* \"#utility.yul\":4941:5001   */\n    tag_92:\n        /* \"#utility.yul\":4891:5007   */\n      pop\n      jump\t// out\n        /* \"#utility.yul\":5013:5135   */\n    tag_40:\n        /* \"#utility.yul\":5086:5110   */\n      tag_94\n        /* \"#utility.yul\":5104:5109   */\n      dup2\n        /* \"#utility.yul\":5086:5110   */\n      tag_69\n      jump\t// in\n    tag_94:\n        /* \"#utility.yul\":5079:5084   */\n      dup2\n        /* \"#utility.yul\":5076:5111   */\n      eq\n        /* \"#utility.yul\":5066:5129   */\n      tag_95\n      jumpi\n        /* \"#utility.yul\":5125:5126   */\n      0x00\n        /* \"#utility.yul\":5122:5123   */\n      dup1\n        /* \"#utility.yul\":5115:5127   */\n      revert\n        /* \"#utility.yul\":5066:5129   */\n    tag_95:\n        /* \"#utility.yul\":5013:5135   */\n      pop\n      jump\t// out\n\n    auxdata: 0xa26469706673582212206dd9af4bad22988f5de29345e2930a84f1c3599c3eb107aecced5516d90a935164736f6c63430008070033\n}\n",
				"bytecode": {
					"linkReferences": {},
					"object": "608060405234801561001057600080fd5b50336000806101000a81548173ffffffffffffffffffffffffffffffffffffffff021916908373ffffffffffffffffffffffffffffffffffffffff16021790555061050a806100606000396000f3fe608060405234801561001057600080fd5b50600436106100415760003560e01c806316c38b3c14610046578063d75cbf9b14610062578063fdf37e3514610080575b600080fd5b610060600480360381019061005b91906102b2565b61009c565b005b61006a610147565b60405161007791906103e4565b60405180910390f35b61009a600480360381019061009591906102df565b6101a0565b005b60008054906101000a900473ffffffffffffffffffffffffffffffffffffffff1673ffffffffffffffffffffffffffffffffffffffff163373ffffffffffffffffffffffffffffffffffffffff161461012a576040517f08c379a000000000000000000000000000000000000000000000000000000000815260040161012190610384565b60405180910390fd5b80600060146101000a81548160ff02191690831515021790555050565b60008060149054906101000a900460ff1615610198576040517f08c379a000000000000000000000000000000000000000000000000000000000815260040161018f906103c4565b60405180910390fd5b600154905090565b600060149054906101000a900460ff16156101f0576040517f08c379a00000000000000000000000000000000000000000000000000000000081526004016101e7906103c4565b60405180910390fd5b60008054906101000a900473ffffffffffffffffffffffffffffffffffffffff1673ffffffffffffffffffffffffffffffffffffffff163373ffffffffffffffffffffffffffffffffffffffff161461027e576040517f08c379a0000000000000000000000000000000000000000000000000000000008152600401610275906103a4565b60405180910390fd5b8060018190555050565b600081359050610297816104a6565b92915050565b6000813590506102ac816104bd565b92915050565b6000602082840312156102c8576102c7610426565b5b60006102d684828501610288565b91505092915050565b6000602082840312156102f5576102f4610426565b5b60006103038482850161029d565b91505092915050565b6000610319600d836103ff565b91506103248261042b565b602082019050919050565b600061033c600d836103ff565b915061034782610454565b602082019050919050565b600061035f6012836103ff565b915061036a8261047d565b602082019050919050565b61037e8161041c565b82525050565b6000602082019050818103600083015261039d8161030c565b9050919050565b600060208201905081810360008301526103bd8161032f565b9050919050565b600060208201905081810360008301526103dd81610352565b9050919050565b60006020820190506103f96000830184610375565b92915050565b600082825260208201905092915050565b60008115159050919050565b6000819050919050565b600080fd5b7f6e6f7420746865206f776e657200000000000000000000000000000000000000600082015250565b7f4e6f7420746865206f776e657200000000000000000000000000000000000000600082015250565b7f436f6e7472616374206973207061757365640000000000000000000000000000600082015250565b6104af81610410565b81146104ba57600080fd5b50565b6104c68161041c565b81146104d157600080fd5b5056fea26469706673582212206dd9af4bad22988f5de29345e2930a84f1c3599c3eb107aecced5516d90a935164736f6c63430008070033",
					"opcodes": "PUSH1 0x80 PUSH1 0x40 MSTORE CALLVALUE DUP1 ISZERO PUSH2 0x10 JUMPI PUSH1 0x0 DUP1 REVERT JUMPDEST POP CALLER PUSH1 0x0 DUP1 PUSH2 0x100 EXP DUP2 SLOAD DUP2 PUSH20 0xFFFFFFFFFFFFFFFFFFFFFFFFFFFFFFFFFFFFFFFF MUL NOT AND SWAP1 DUP4 PUSH20 0xFFFFFFFFFFFFFFFFFFFFFFFFFFFFFFFFFFFFFFFF AND MUL OR SWAP1 SSTORE POP PUSH2 0x50A DUP1 PUSH2 0x60 PUSH1 0x0 CODECOPY PUSH1 0x0 RETURN INVALID PUSH1 0x80 PUSH1 0x40 MSTORE CALLVALUE DUP1 ISZERO PUSH2 0x10 JUMPI PUSH1 0x0 DUP1 REVERT JUMPDEST POP PUSH1 0x4 CALLDATASIZE LT PUSH2 0x41 JUMPI PUSH1 0x0 CALLDATALOAD PUSH1 0xE0 SHR DUP1 PUSH4 0x16C38B3C EQ PUSH2 0x46 JUMPI DUP1 PUSH4 0xD75CBF9B EQ PUSH2 0x62 JUMPI DUP1 PUSH4 0xFDF37E35 EQ PUSH2 0x80 JUMPI JUMPDEST PUSH1 0x0 DUP1 REVERT JUMPDEST PUSH2 0x60 PUSH1 0x4 DUP1 CALLDATASIZE SUB DUP2 ADD SWAP1 PUSH2 0x5B SWAP2 SWAP1 PUSH2 0x2B2 JUMP JUMPDEST PUSH2 0x9C JUMP JUMPDEST STOP JUMPDEST PUSH2 0x6A PUSH2 0x147 JUMP JUMPDEST PUSH1 0x40 MLOAD PUSH2 0x77 SWAP2 SWAP1 PUSH2 0x3E4 JUMP JUMPDEST PUSH1 0x40 MLOAD DUP1 SWAP2 SUB SWAP1 RETURN JUMPDEST PUSH2 0x9A PUSH1 0x4 DUP1 CALLDATASIZE SUB DUP2 ADD SWAP1 PUSH2 0x95 SWAP2 SWAP1 PUSH2 0x2DF JUMP JUMPDEST PUSH2 0x1A0 JUMP JUMPDEST STOP JUMPDEST PUSH1 0x0 DUP1 SLOAD SWAP1 PUSH2 0x100 EXP SWAP1 DIV PUSH20 0xFFFFFFFFFFFFFFFFFFFFFFFFFFFFFFFFFFFFFFFF AND PUSH20 0xFFFFFFFFFFFFFFFFFFFFFFFFFFFFFFFFFFFFFFFF AND CALLER PUSH20 0xFFFFFFFFFFFFFFFFFFFFFFFFFFFFFFFFFFFFFFFF AND EQ PUSH2 0x12A JUMPI PUSH1 0x40 MLOAD PUSH32 0x8C379A000000000000000000000000000000000000000000000000000000000 DUP2 MSTORE PUSH1 0x4 ADD PUSH2 0x121 SWAP1 PUSH2 0x384 JUMP JUMPDEST PUSH1 0x40 MLOAD DUP1 SWAP2 SUB SWAP1 REVERT JUMPDEST DUP1 PUSH1 0x0 PUSH1 0x14 PUSH2 0x100 EXP DUP2 SLOAD DUP2 PUSH1 0xFF MUL NOT AND SWAP1 DUP4 ISZERO ISZERO MUL OR SWAP1 SSTORE POP POP JUMP JUMPDEST PUSH1 0x0 DUP1 PUSH1 0x14 SWAP1 SLOAD SWAP1 PUSH2 0x100 EXP SWAP1 DIV PUSH1 0xFF AND ISZERO PUSH2 0x198 JUMPI PUSH1 0x40 MLOAD PUSH32 0x8C379A000000000000000000000000000000000000000000000000000000000 DUP2 MSTORE PUSH1 0x4 ADD PUSH2 0x18F SWAP1 PUSH2 0x3C4 JUMP JUMPDEST PUSH1 0x40 MLOAD DUP1 SWAP2 SUB SWAP1 REVERT JUMPDEST PUSH1 0x1 SLOAD SWAP1 POP SWAP1 JUMP JUMPDEST PUSH1 0x0 PUSH1 0x14 SWAP1 SLOAD SWAP1 PUSH2 0x100 EXP SWAP1 DIV PUSH1 0xFF AND ISZERO PUSH2 0x1F0 JUMPI PUSH1 0x40 MLOAD PUSH32 0x8C379A000000000000000000000000000000000000000000000000000000000 DUP2 MSTORE PUSH1 0x4 ADD PUSH2 0x1E7 SWAP1 PUSH2 0x3C4 JUMP JUMPDEST PUSH1 0x40 MLOAD DUP1 SWAP2 SUB SWAP1 REVERT JUMPDEST PUSH1 0x0 DUP1 SLOAD SWAP1 PUSH2 0x100 EXP SWAP1 DIV PUSH20 0xFFFFFFFFFFFFFFFFFFFFFFFFFFFFFFFFFFFFFFFF AND PUSH20 0xFFFFFFFFFFFFFFFFFFFFFFFFFFFFFFFFFFFFFFFF AND CALLER PUSH20 0xFFFFFFFFFFFFFFFFFFFFFFFFFFFFFFFFFFFFFFFF AND EQ PUSH2 0x27E JUMPI PUSH1 0x40 MLOAD PUSH32 0x8C379A000000000000000000000000000000000000000000000000000000000 DUP2 MSTORE PUSH1 0x4 ADD PUSH2 0x275 SWAP1 PUSH2 0x3A4 JUMP JUMPDEST PUSH1 0x40 MLOAD DUP1 SWAP2 SUB SWAP1 REVERT JUMPDEST DUP1 PUSH1 0x1 DUP2 SWAP1 SSTORE POP POP JUMP JUMPDEST PUSH1 0x0 DUP2 CALLDATALOAD SWAP1 POP PUSH2 0x297 DUP2 PUSH2 0x4A6 JUMP JUMPDEST SWAP3 SWAP2 POP POP JUMP JUMPDEST PUSH1 0x0 DUP2 CALLDATALOAD SWAP1 POP PUSH2 0x2AC DUP2 PUSH2 0x4BD JUMP JUMPDEST SWAP3 SWAP2 POP POP JUMP JUMPDEST PUSH1 0x0 PUSH1 0x20 DUP3 DUP5 SUB SLT ISZERO PUSH2 0x2C8 JUMPI PUSH2 0x2C7 PUSH2 0x426 JUMP JUMPDEST JUMPDEST PUSH1 0x0 PUSH2 0x2D6 DUP5 DUP3 DUP6 ADD PUSH2 0x288 JUMP JUMPDEST SWAP2 POP POP SWAP3 SWAP2 POP POP JUMP JUMPDEST PUSH1 0x0 PUSH1 0x20 DUP3 DUP5 SUB SLT ISZERO PUSH2 0x2F5 JUMPI PUSH2 0x2F4 PUSH2 0x426 JUMP JUMPDEST JUMPDEST PUSH1 0x0 PUSH2 0x303 DUP5 DUP3 DUP6 ADD PUSH2 0x29D JUMP JUMPDEST SWAP2 POP POP SWAP3 SWAP2 POP POP JUMP JUMPDEST PUSH1 0x0 PUSH2 0x319 PUSH1 0xD DUP4 PUSH2 0x3FF JUMP JUMPDEST SWAP2 POP PUSH2 0x324 DUP3 PUSH2 0x42B JUMP JUMPDEST PUSH1 0x20 DUP3 ADD SWAP1 POP SWAP2 SWAP1 POP JUMP JUMPDEST PUSH1 0x0 PUSH2 0x33C PUSH1 0xD DUP4 PUSH2 0x3FF JUMP JUMPDEST SWAP2 POP PUSH2 0x347 DUP3 PUSH2 0x454 JUMP JUMPDEST PUSH1 0x20 DUP3 ADD SWAP1 POP SWAP2 SWAP1 POP JUMP JUMPDEST PUSH1 0x0 PUSH2 0x35F PUSH1 0x12 DUP4 PUSH2 0x3FF JUMP JUMPDEST SWAP2 POP PUSH2 0x36A DUP3 PUSH2 0x47D JUMP JUMPDEST PUSH1 0x20 DUP3 ADD SWAP1 POP SWAP2 SWAP1 POP JUMP JUMPDEST PUSH2 0x37E DUP2 PUSH2 0x41C JUMP JUMPDEST DUP3 MSTORE POP POP JUMP JUMPDEST PUSH1 0x0 PUSH1 0x20 DUP3 ADD SWAP1 POP DUP2 DUP2 SUB PUSH1 0x0 DUP4 ADD MSTORE PUSH2 0x39D DUP2 PUSH2 0x30C JUMP JUMPDEST SWAP1 POP SWAP2 SWAP1 POP JUMP JUMPDEST PUSH1 0x0 PUSH1 0x20 DUP3 ADD SWAP1 POP DUP2 DUP2 SUB PUSH1 0x0 DUP4 ADD MSTORE PUSH2 0x3BD DUP2 PUSH2 0x32F JUMP JUMPDEST SWAP1 POP SWAP2 SWAP1 POP JUMP JUMPDEST PUSH1 0x0 PUSH1 0x20 DUP3 ADD SWAP1 POP DUP2 DUP2 SUB PUSH1 0x0 DUP4 ADD MSTORE PUSH2 0x3DD DUP2 PUSH2 0x352 JUMP JUMPDEST SWAP1 POP SWAP2 SWAP1 POP JUMP JUMPDEST PUSH1 0x0 PUSH1 0x20 DUP3 ADD SWAP1 POP PUSH2 0x3F9 PUSH1 0x0 DUP4 ADD DUP5 PUSH2 0x375 JUMP JUMPDEST SWAP3 SWAP2 POP POP JUMP JUMPDEST PUSH1 0x0 DUP3 DUP3 MSTORE PUSH1 0x20 DUP3 ADD SWAP1 POP SWAP3 SWAP2 POP POP JUMP JUMPDEST PUSH1 0x0 DUP2 ISZERO ISZERO SWAP1 POP SWAP2 SWAP1 POP JUMP JUMPDEST PUSH1 0x0 DUP2 SWAP1 POP SWAP2 SWAP1 POP JUMP JUMPDEST PUSH1 0x0 DUP1 REVERT JUMPDEST PUSH32 0x6E6F7420746865206F776E657200000000000000000000000000000000000000 PUSH1 0x0 DUP3 ADD MSTORE POP JUMP JUMPDEST PUSH32 0x4E6F7420746865206F776E657200000000000000000000000000000000000000 PUSH1 0x0 DUP3 ADD MSTORE POP JUMP JUMPDEST PUSH32 0x436F6E7472616374206973207061757365640000000000000000000000000000 PUSH1 0x0 DUP3 ADD MSTORE POP JUMP JUMPDEST PUSH2 0x4AF DUP2 PUSH2 0x410 JUMP JUMPDEST DUP2 EQ PUSH2 0x4BA JUMPI PUSH1 0x0 DUP1 REVERT JUMPDEST POP JUMP JUMPDEST PUSH2 0x4C6 DUP2 PUSH2 0x41C JUMP JUMPDEST DUP2 EQ PUSH2 0x4D1 JUMPI PUSH1 0x0 DUP1 REVERT JUMPDEST POP JUMP INVALID LOG2 PUSH5 0x6970667358 0x22 SLT KECCAK256 PUSH14 0xD9AF4BAD22988F5DE29345E2930A DUP5 CALL 0xC3 MSIZE SWAP13 RETURNDATACOPY 0xB1 SMOD 0xAE 0xCC 0xED SSTORE AND 0xD9 EXP SWAP4 MLOAD PUSH5 0x736F6C6343 STOP ADDMOD SMOD STOP CALLER "
				},
				"gasEstimates": {
					"creation": {
						"codeDepositCost": "258000",
						"executionCost": "24566",
						"totalCost": "282566"
					},
					"external": {
						"getNombre()": "4643",
						"setNombre(uint256)": "26915",
						"setPaused(bool)": "26874"
					}
				},
				"methodIdentifiers": {
					"getNombre()": "d75cbf9b",
					"setNombre(uint256)": "fdf37e35",
					"setPaused(bool)": "16c38b3c"
				}
			},
			"storageLayout": {
				"storage": [
					{
						"astId": 3,
						"contract": "contracts/Owner.sol:Owner",
						"label": "owner",
						"offset": 0,
						"slot": "0",
						"type": "t_address"
					},
					{
						"astId": 5,
						"contract": "contracts/Owner.sol:Owner",
						"label": "paused",
						"offset": 20,
						"slot": "0",
						"type": "t_bool"
					},
					{
						"astId": 7,
						"contract": "contracts/Owner.sol:Owner",
						"label": "nombre",
						"offset": 0,
						"slot": "1",
						"type": "t_uint256"
					}
				],
				"types": {
					"t_address": {
						"encoding": "inplace",
						"label": "address",
						"numberOfBytes": "20"
					},
					"t_bool": {
						"encoding": "inplace",
						"label": "bool",
						"numberOfBytes": "1"
					},
					"t_uint256": {
						"encoding": "inplace",
						"label": "uint256",
						"numberOfBytes": "32"
					}
				}
			},
			"userdoc": {
				"kind": "user",
				"methods": {},
				"version": 1
			}
		}
	}
}