{
	"contracts/Gestionnaire_deleve.sol": {
		"GestionnaireEleve": {
			"abi": [
				{
					"inputs": [
						{
							"internalType": "address",
							"name": "_studentAddress",
							"type": "address"
						},
						{
							"internalType": "string",
							"name": "_firstName",
							"type": "string"
						},
						{
							"internalType": "string",
							"name": "_lastName",
							"type": "string"
						}
					],
					"name": "addEleve",
					"outputs": [],
					"stateMutability": "nonpayable",
					"type": "function"
				},
				{
					"inputs": [
						{
							"internalType": "address",
							"name": "_studentAddress",
							"type": "address"
						},
						{
							"internalType": "uint256",
							"name": "_grade",
							"type": "uint256"
						},
						{
							"internalType": "string",
							"name": "_subject",
							"type": "string"
						}
					],
					"name": "addGrade",
					"outputs": [],
					"stateMutability": "nonpayable",
					"type": "function"
				}
			],
			"devdoc": {
				"kind": "dev",
				"methods": {},
				"version": 1
			},
			"evm": {
				"assembly": "    /* \"contracts/Gestionnaire_deleve.sol\":24:1339  contract GestionnaireEleve {... */\n  mstore(0x40, 0x80)\n  callvalue\n  dup1\n  iszero\n  tag_1\n  jumpi\n  0x00\n  dup1\n  revert\ntag_1:\n  pop\n  dataSize(sub_0)\n  dup1\n  dataOffset(sub_0)\n  0x00\n  codecopy\n  0x00\n  return\nstop\n\nsub_0: assembly {\n        /* \"contracts/Gestionnaire_deleve.sol\":24:1339  contract GestionnaireEleve {... */\n      mstore(0x40, 0x80)\n      callvalue\n      dup1\n      iszero\n      tag_1\n      jumpi\n      0x00\n      dup1\n      revert\n    tag_1:\n      pop\n      jumpi(tag_2, lt(calldatasize, 0x04))\n      shr(0xe0, calldataload(0x00))\n      dup1\n      0x698ba90e\n      eq\n      tag_3\n      jumpi\n      dup1\n      0xf4bb08de\n      eq\n      tag_4\n      jumpi\n    tag_2:\n      0x00\n      dup1\n      revert\n        /* \"contracts/Gestionnaire_deleve.sol\":340:768  function addEleve(address _studentAddress, string memory _firstName, string memory _lastName) public { ... */\n    tag_3:\n      tag_5\n      0x04\n      dup1\n      calldatasize\n      sub\n      dup2\n      add\n      swap1\n      tag_6\n      swap2\n      swap1\n      tag_7\n      jump\t// in\n    tag_6:\n      tag_8\n      jump\t// in\n    tag_5:\n      stop\n        /* \"contracts/Gestionnaire_deleve.sol\":774:1337  function addGrade(address _studentAddress, uint _grade, string memory _subject) public { ... */\n    tag_4:\n      tag_9\n      0x04\n      dup1\n      calldatasize\n      sub\n      dup2\n      add\n      swap1\n      tag_10\n      swap2\n      swap1\n      tag_11\n      jump\t// in\n    tag_10:\n      tag_12\n      jump\t// in\n    tag_9:\n      stop\n        /* \"contracts/Gestionnaire_deleve.sol\":340:768  function addEleve(address _studentAddress, string memory _firstName, string memory _lastName) public { ... */\n    tag_8:\n        /* \"contracts/Gestionnaire_deleve.sol\":474:479  owner */\n      0x00\n      dup1\n      sload\n      swap1\n      0x0100\n      exp\n      swap1\n      div\n      0xffffffffffffffffffffffffffffffffffffffff\n      and\n        /* \"contracts/Gestionnaire_deleve.sol\":460:479  msg.sender == owner */\n      0xffffffffffffffffffffffffffffffffffffffff\n      and\n        /* \"contracts/Gestionnaire_deleve.sol\":460:470  msg.sender */\n      caller\n        /* \"contracts/Gestionnaire_deleve.sol\":460:479  msg.sender == owner */\n      0xffffffffffffffffffffffffffffffffffffffff\n      and\n      eq\n        /* \"contracts/Gestionnaire_deleve.sol\":452:497  require(msg.sender == owner, \"Not the owner\") */\n      tag_14\n      jumpi\n      mload(0x40)\n      0x08c379a000000000000000000000000000000000000000000000000000000000\n      dup2\n      mstore\n      0x04\n      add\n      tag_15\n      swap1\n      tag_16\n      jump\t// in\n    tag_15:\n      mload(0x40)\n      dup1\n      swap2\n      sub\n      swap1\n      revert\n    tag_14:\n        /* \"contracts/Gestionnaire_deleve.sol\":507:538  bytes memory firstNameOfAddress */\n      0x00\n        /* \"contracts/Gestionnaire_deleve.sol\":547:555  students */\n      0x01\n        /* \"contracts/Gestionnaire_deleve.sol\":547:572  students[_studentAddress] */\n      0x00\n        /* \"contracts/Gestionnaire_deleve.sol\":556:571  _studentAddress */\n      dup6\n        /* \"contracts/Gestionnaire_deleve.sol\":547:572  students[_studentAddress] */\n      0xffffffffffffffffffffffffffffffffffffffff\n      and\n      0xffffffffffffffffffffffffffffffffffffffff\n      and\n      dup2\n      mstore\n      0x20\n      add\n      swap1\n      dup2\n      mstore\n      0x20\n      add\n      0x00\n      keccak256\n        /* \"contracts/Gestionnaire_deleve.sol\":547:582  students[_studentAddress].firstName */\n      0x00\n      add\n        /* \"contracts/Gestionnaire_deleve.sol\":507:583  bytes memory firstNameOfAddress = bytes(students[_studentAddress].firstName) */\n      dup1\n      sload\n      tag_17\n      swap1\n      tag_18\n      jump\t// in\n    tag_17:\n      dup1\n      0x1f\n      add\n      0x20\n      dup1\n      swap2\n      div\n      mul\n      0x20\n      add\n      mload(0x40)\n      swap1\n      dup2\n      add\n      0x40\n      mstore\n      dup1\n      swap3\n      swap2\n      swap1\n      dup2\n      dup2\n      mstore\n      0x20\n      add\n      dup3\n      dup1\n      sload\n      tag_19\n      swap1\n      tag_18\n      jump\t// in\n    tag_19:\n      dup1\n      iszero\n      tag_20\n      jumpi\n      dup1\n      0x1f\n      lt\n      tag_21\n      jumpi\n      0x0100\n      dup1\n      dup4\n      sload\n      div\n      mul\n      dup4\n      mstore\n      swap2\n      0x20\n      add\n      swap2\n      jump(tag_20)\n    tag_21:\n      dup3\n      add\n      swap2\n      swap1\n      0x00\n      mstore\n      keccak256(0x00, 0x20)\n      swap1\n    tag_22:\n      dup2\n      sload\n      dup2\n      mstore\n      swap1\n      0x01\n      add\n      swap1\n      0x20\n      add\n      dup1\n      dup4\n      gt\n      tag_22\n      jumpi\n      dup3\n      swap1\n      sub\n      0x1f\n      and\n      dup3\n      add\n      swap2\n    tag_20:\n      pop\n      pop\n      pop\n      pop\n      pop\n      swap1\n      pop\n        /* \"contracts/Gestionnaire_deleve.sol\":630:631  0 */\n      0x00\n        /* \"contracts/Gestionnaire_deleve.sol\":601:619  firstNameOfAddress */\n      dup2\n        /* \"contracts/Gestionnaire_deleve.sol\":601:626  firstNameOfAddress.length */\n      mload\n        /* \"contracts/Gestionnaire_deleve.sol\":601:631  firstNameOfAddress.length == 0 */\n      eq\n        /* \"contracts/Gestionnaire_deleve.sol\":593:647  require(firstNameOfAddress.length == 0, \"Existe deja\") */\n      tag_23\n      jumpi\n      mload(0x40)\n      0x08c379a000000000000000000000000000000000000000000000000000000000\n      dup2\n      mstore\n      0x04\n      add\n      tag_24\n      swap1\n      tag_25\n      jump\t// in\n    tag_24:\n      mload(0x40)\n      dup1\n      swap2\n      sub\n      swap1\n      revert\n    tag_23:\n        /* \"contracts/Gestionnaire_deleve.sol\":695:705  _firstName */\n      dup3\n        /* \"contracts/Gestionnaire_deleve.sol\":657:665  students */\n      0x01\n        /* \"contracts/Gestionnaire_deleve.sol\":657:682  students[_studentAddress] */\n      0x00\n        /* \"contracts/Gestionnaire_deleve.sol\":666:681  _studentAddress */\n      dup7\n        /* \"contracts/Gestionnaire_deleve.sol\":657:682  students[_studentAddress] */\n      0xffffffffffffffffffffffffffffffffffffffff\n      and\n      0xffffffffffffffffffffffffffffffffffffffff\n      and\n      dup2\n      mstore\n      0x20\n      add\n      swap1\n      dup2\n      mstore\n      0x20\n      add\n      0x00\n      keccak256\n        /* \"contracts/Gestionnaire_deleve.sol\":657:692  students[_studentAddress].firstName */\n      0x00\n      add\n        /* \"contracts/Gestionnaire_deleve.sol\":657:705  students[_studentAddress].firstName = _firstName */\n      swap1\n      dup1\n      mload\n      swap1\n      0x20\n      add\n      swap1\n      tag_26\n      swap3\n      swap2\n      swap1\n      tag_27\n      jump\t// in\n    tag_26:\n      pop\n        /* \"contracts/Gestionnaire_deleve.sol\":752:761  _lastName */\n      dup2\n        /* \"contracts/Gestionnaire_deleve.sol\":715:723  students */\n      0x01\n        /* \"contracts/Gestionnaire_deleve.sol\":715:740  students[_studentAddress] */\n      0x00\n        /* \"contracts/Gestionnaire_deleve.sol\":724:739  _studentAddress */\n      dup7\n        /* \"contracts/Gestionnaire_deleve.sol\":715:740  students[_studentAddress] */\n      0xffffffffffffffffffffffffffffffffffffffff\n      and\n      0xffffffffffffffffffffffffffffffffffffffff\n      and\n      dup2\n      mstore\n      0x20\n      add\n      swap1\n      dup2\n      mstore\n      0x20\n      add\n      0x00\n      keccak256\n        /* \"contracts/Gestionnaire_deleve.sol\":715:749  students[_studentAddress].lastName */\n      0x01\n      add\n        /* \"contracts/Gestionnaire_deleve.sol\":715:761  students[_studentAddress].lastName = _lastName */\n      swap1\n      dup1\n      mload\n      swap1\n      0x20\n      add\n      swap1\n      tag_28\n      swap3\n      swap2\n      swap1\n      tag_27\n      jump\t// in\n    tag_28:\n      pop\n        /* \"contracts/Gestionnaire_deleve.sol\":441:768  { ... */\n      pop\n        /* \"contracts/Gestionnaire_deleve.sol\":340:768  function addEleve(address _studentAddress, string memory _firstName, string memory _lastName) public { ... */\n      pop\n      pop\n      pop\n      jump\t// out\n        /* \"contracts/Gestionnaire_deleve.sol\":774:1337  function addGrade(address _studentAddress, uint _grade, string memory _subject) public { ... */\n    tag_12:\n        /* \"contracts/Gestionnaire_deleve.sol\":894:899  owner */\n      0x00\n      dup1\n      sload\n      swap1\n      0x0100\n      exp\n      swap1\n      div\n      0xffffffffffffffffffffffffffffffffffffffff\n      and\n        /* \"contracts/Gestionnaire_deleve.sol\":880:899  msg.sender == owner */\n      0xffffffffffffffffffffffffffffffffffffffff\n      and\n        /* \"contracts/Gestionnaire_deleve.sol\":880:890  msg.sender */\n      caller\n        /* \"contracts/Gestionnaire_deleve.sol\":880:899  msg.sender == owner */\n      0xffffffffffffffffffffffffffffffffffffffff\n      and\n      eq\n        /* \"contracts/Gestionnaire_deleve.sol\":872:917  require(msg.sender == owner, \"Not the owner\") */\n      tag_30\n      jumpi\n      mload(0x40)\n      0x08c379a000000000000000000000000000000000000000000000000000000000\n      dup2\n      mstore\n      0x04\n      add\n      tag_31\n      swap1\n      tag_16\n      jump\t// in\n    tag_31:\n      mload(0x40)\n      dup1\n      swap2\n      sub\n      swap1\n      revert\n    tag_30:\n        /* \"contracts/Gestionnaire_deleve.sol\":927:958  bytes memory firstNameOfAddress */\n      0x00\n        /* \"contracts/Gestionnaire_deleve.sol\":967:975  students */\n      0x01\n        /* \"contracts/Gestionnaire_deleve.sol\":967:992  students[_studentAddress] */\n      0x00\n        /* \"contracts/Gestionnaire_deleve.sol\":976:991  _studentAddress */\n      dup6\n        /* \"contracts/Gestionnaire_deleve.sol\":967:992  students[_studentAddress] */\n      0xffffffffffffffffffffffffffffffffffffffff\n      and\n      0xffffffffffffffffffffffffffffffffffffffff\n      and\n      dup2\n      mstore\n      0x20\n      add\n      swap1\n      dup2\n      mstore\n      0x20\n      add\n      0x00\n      keccak256\n        /* \"contracts/Gestionnaire_deleve.sol\":967:1002  students[_studentAddress].firstName */\n      0x00\n      add\n        /* \"contracts/Gestionnaire_deleve.sol\":927:1003  bytes memory firstNameOfAddress = bytes(students[_studentAddress].firstName) */\n      dup1\n      sload\n      tag_32\n      swap1\n      tag_18\n      jump\t// in\n    tag_32:\n      dup1\n      0x1f\n      add\n      0x20\n      dup1\n      swap2\n      div\n      mul\n      0x20\n      add\n      mload(0x40)\n      swap1\n      dup2\n      add\n      0x40\n      mstore\n      dup1\n      swap3\n      swap2\n      swap1\n      dup2\n      dup2\n      mstore\n      0x20\n      add\n      dup3\n      dup1\n      sload\n      tag_33\n      swap1\n      tag_18\n      jump\t// in\n    tag_33:\n      dup1\n      iszero\n      tag_34\n      jumpi\n      dup1\n      0x1f\n      lt\n      tag_35\n      jumpi\n      0x0100\n      dup1\n      dup4\n      sload\n      div\n      mul\n      dup4\n      mstore\n      swap2\n      0x20\n      add\n      swap2\n      jump(tag_34)\n    tag_35:\n      dup3\n      add\n      swap2\n      swap1\n      0x00\n      mstore\n      keccak256(0x00, 0x20)\n      swap1\n    tag_36:\n      dup2\n      sload\n      dup2\n      mstore\n      swap1\n      0x01\n      add\n      swap1\n      0x20\n      add\n      dup1\n      dup4\n      gt\n      tag_36\n      jumpi\n      dup3\n      swap1\n      sub\n      0x1f\n      and\n      dup3\n      add\n      swap2\n    tag_34:\n      pop\n      pop\n      pop\n      pop\n      pop\n      swap1\n      pop\n        /* \"contracts/Gestionnaire_deleve.sol\":1049:1050  0 */\n      0x00\n        /* \"contracts/Gestionnaire_deleve.sol\":1021:1039  firstNameOfAddress */\n      dup2\n        /* \"contracts/Gestionnaire_deleve.sol\":1021:1046  firstNameOfAddress.length */\n      mload\n        /* \"contracts/Gestionnaire_deleve.sol\":1021:1050  firstNameOfAddress.length > 0 */\n      gt\n        /* \"contracts/Gestionnaire_deleve.sol\":1013:1076  require(firstNameOfAddress.length > 0, \"Il faut creer l'eleve\") */\n      tag_37\n      jumpi\n      mload(0x40)\n      0x08c379a000000000000000000000000000000000000000000000000000000000\n      dup2\n      mstore\n      0x04\n      add\n      tag_38\n      swap1\n      tag_39\n      jump\t// in\n    tag_38:\n      mload(0x40)\n      dup1\n      swap2\n      sub\n      swap1\n      revert\n    tag_37:\n        /* \"contracts/Gestionnaire_deleve.sol\":1169:1175  _grade */\n      dup3\n        /* \"contracts/Gestionnaire_deleve.sol\":1086:1094  students */\n      0x01\n        /* \"contracts/Gestionnaire_deleve.sol\":1086:1111  students[_studentAddress] */\n      0x00\n        /* \"contracts/Gestionnaire_deleve.sol\":1095:1110  _studentAddress */\n      dup7\n        /* \"contracts/Gestionnaire_deleve.sol\":1086:1111  students[_studentAddress] */\n      0xffffffffffffffffffffffffffffffffffffffff\n      and\n      0xffffffffffffffffffffffffffffffffffffffff\n      and\n      dup2\n      mstore\n      0x20\n      add\n      swap1\n      dup2\n      mstore\n      0x20\n      add\n      0x00\n      keccak256\n        /* \"contracts/Gestionnaire_deleve.sol\":1086:1118  students[_studentAddress].grades */\n      0x03\n      add\n        /* \"contracts/Gestionnaire_deleve.sol\":1086:1160  students[_studentAddress].grades[students[_studentAddress].numberOfGrades] */\n      0x00\n        /* \"contracts/Gestionnaire_deleve.sol\":1119:1127  students */\n      0x01\n        /* \"contracts/Gestionnaire_deleve.sol\":1119:1144  students[_studentAddress] */\n      0x00\n        /* \"contracts/Gestionnaire_deleve.sol\":1128:1143  _studentAddress */\n      dup9\n        /* \"contracts/Gestionnaire_deleve.sol\":1119:1144  students[_studentAddress] */\n      0xffffffffffffffffffffffffffffffffffffffff\n      and\n      0xffffffffffffffffffffffffffffffffffffffff\n      and\n      dup2\n      mstore\n      0x20\n      add\n      swap1\n      dup2\n      mstore\n      0x20\n      add\n      0x00\n      keccak256\n        /* \"contracts/Gestionnaire_deleve.sol\":1119:1159  students[_studentAddress].numberOfGrades */\n      0x02\n      add\n      sload\n        /* \"contracts/Gestionnaire_deleve.sol\":1086:1160  students[_studentAddress].grades[students[_studentAddress].numberOfGrades] */\n      dup2\n      mstore\n      0x20\n      add\n      swap1\n      dup2\n      mstore\n      0x20\n      add\n      0x00\n      keccak256\n        /* \"contracts/Gestionnaire_deleve.sol\":1086:1166  students[_studentAddress].grades[students[_studentAddress].numberOfGrades].grade */\n      0x01\n      add\n        /* \"contracts/Gestionnaire_deleve.sol\":1086:1175  students[_studentAddress].grades[students[_studentAddress].numberOfGrades].grade = _grade */\n      dup2\n      swap1\n      sstore\n      pop\n        /* \"contracts/Gestionnaire_deleve.sol\":1270:1278  _subject */\n      dup2\n        /* \"contracts/Gestionnaire_deleve.sol\":1185:1193  students */\n      0x01\n        /* \"contracts/Gestionnaire_deleve.sol\":1185:1210  students[_studentAddress] */\n      0x00\n        /* \"contracts/Gestionnaire_deleve.sol\":1194:1209  _studentAddress */\n      dup7\n        /* \"contracts/Gestionnaire_deleve.sol\":1185:1210  students[_studentAddress] */\n      0xffffffffffffffffffffffffffffffffffffffff\n      and\n      0xffffffffffffffffffffffffffffffffffffffff\n      and\n      dup2\n      mstore\n      0x20\n      add\n      swap1\n      dup2\n      mstore\n      0x20\n      add\n      0x00\n      keccak256\n        /* \"contracts/Gestionnaire_deleve.sol\":1185:1217  students[_studentAddress].grades */\n      0x03\n      add\n        /* \"contracts/Gestionnaire_deleve.sol\":1185:1259  students[_studentAddress].grades[students[_studentAddress].numberOfGrades] */\n      0x00\n        /* \"contracts/Gestionnaire_deleve.sol\":1218:1226  students */\n      0x01\n        /* \"contracts/Gestionnaire_deleve.sol\":1218:1243  students[_studentAddress] */\n      0x00\n        /* \"contracts/Gestionnaire_deleve.sol\":1227:1242  _studentAddress */\n      dup9\n        /* \"contracts/Gestionnaire_deleve.sol\":1218:1243  students[_studentAddress] */\n      0xffffffffffffffffffffffffffffffffffffffff\n      and\n      0xffffffffffffffffffffffffffffffffffffffff\n      and\n      dup2\n      mstore\n      0x20\n      add\n      swap1\n      dup2\n      mstore\n      0x20\n      add\n      0x00\n      keccak256\n        /* \"contracts/Gestionnaire_deleve.sol\":1218:1258  students[_studentAddress].numberOfGrades */\n      0x02\n      add\n      sload\n        /* \"contracts/Gestionnaire_deleve.sol\":1185:1259  students[_studentAddress].grades[students[_studentAddress].numberOfGrades] */\n      dup2\n      mstore\n      0x20\n      add\n      swap1\n      dup2\n      mstore\n      0x20\n      add\n      0x00\n      keccak256\n        /* \"contracts/Gestionnaire_deleve.sol\":1185:1267  students[_studentAddress].grades[students[_studentAddress].numberOfGrades].subject */\n      0x00\n      add\n        /* \"contracts/Gestionnaire_deleve.sol\":1185:1278  students[_studentAddress].grades[students[_studentAddress].numberOfGrades].subject = _subject */\n      swap1\n      dup1\n      mload\n      swap1\n      0x20\n      add\n      swap1\n      tag_40\n      swap3\n      swap2\n      swap1\n      tag_27\n      jump\t// in\n    tag_40:\n      pop\n        /* \"contracts/Gestionnaire_deleve.sol\":1288:1296  students */\n      0x01\n        /* \"contracts/Gestionnaire_deleve.sol\":1288:1313  students[_studentAddress] */\n      0x00\n        /* \"contracts/Gestionnaire_deleve.sol\":1297:1312  _studentAddress */\n      dup6\n        /* \"contracts/Gestionnaire_deleve.sol\":1288:1313  students[_studentAddress] */\n      0xffffffffffffffffffffffffffffffffffffffff\n      and\n      0xffffffffffffffffffffffffffffffffffffffff\n      and\n      dup2\n      mstore\n      0x20\n      add\n      swap1\n      dup2\n      mstore\n      0x20\n      add\n      0x00\n      keccak256\n        /* \"contracts/Gestionnaire_deleve.sol\":1288:1328  students[_studentAddress].numberOfGrades */\n      0x02\n      add\n      0x00\n        /* \"contracts/Gestionnaire_deleve.sol\":1288:1330  students[_studentAddress].numberOfGrades++ */\n      dup2\n      sload\n      dup1\n      swap3\n      swap2\n      swap1\n      tag_41\n      swap1\n      tag_42\n      jump\t// in\n    tag_41:\n      swap2\n      swap1\n      pop\n      sstore\n      pop\n        /* \"contracts/Gestionnaire_deleve.sol\":861:1337  { ... */\n      pop\n        /* \"contracts/Gestionnaire_deleve.sol\":774:1337  function addGrade(address _studentAddress, uint _grade, string memory _subject) public { ... */\n      pop\n      pop\n      pop\n      jump\t// out\n    tag_27:\n      dup3\n      dup1\n      sload\n      tag_43\n      swap1\n      tag_18\n      jump\t// in\n    tag_43:\n      swap1\n      0x00\n      mstore\n      keccak256(0x00, 0x20)\n      swap1\n      0x1f\n      add\n      0x20\n      swap1\n      div\n      dup2\n      add\n      swap3\n      dup3\n      tag_45\n      jumpi\n      0x00\n      dup6\n      sstore\n      jump(tag_44)\n    tag_45:\n      dup3\n      0x1f\n      lt\n      tag_46\n      jumpi\n      dup1\n      mload\n      not(0xff)\n      and\n      dup4\n      dup1\n      add\n      or\n      dup6\n      sstore\n      jump(tag_44)\n    tag_46:\n      dup3\n      dup1\n      add\n      0x01\n      add\n      dup6\n      sstore\n      dup3\n      iszero\n      tag_44\n      jumpi\n      swap2\n      dup3\n      add\n    tag_47:\n      dup3\n      dup2\n      gt\n      iszero\n      tag_48\n      jumpi\n      dup3\n      mload\n      dup3\n      sstore\n      swap2\n      0x20\n      add\n      swap2\n      swap1\n      0x01\n      add\n      swap1\n      jump(tag_47)\n    tag_48:\n    tag_44:\n      pop\n      swap1\n      pop\n      tag_49\n      swap2\n      swap1\n      tag_50\n      jump\t// in\n    tag_49:\n      pop\n      swap1\n      jump\t// out\n    tag_50:\n    tag_51:\n      dup1\n      dup3\n      gt\n      iszero\n      tag_52\n      jumpi\n      0x00\n      dup2\n      0x00\n      swap1\n      sstore\n      pop\n      0x01\n      add\n      jump(tag_51)\n    tag_52:\n      pop\n      swap1\n      jump\t// out\n        /* \"#utility.yul\":7:419   */\n    tag_54:\n        /* \"#utility.yul\":85:90   */\n      0x00\n        /* \"#utility.yul\":110:176   */\n      tag_56\n        /* \"#utility.yul\":126:175   */\n      tag_57\n        /* \"#utility.yul\":168:174   */\n      dup5\n        /* \"#utility.yul\":126:175   */\n      tag_58\n      jump\t// in\n    tag_57:\n        /* \"#utility.yul\":110:176   */\n      tag_59\n      jump\t// in\n    tag_56:\n        /* \"#utility.yul\":101:176   */\n      swap1\n      pop\n        /* \"#utility.yul\":199:205   */\n      dup3\n        /* \"#utility.yul\":192:197   */\n      dup2\n        /* \"#utility.yul\":185:206   */\n      mstore\n        /* \"#utility.yul\":237:241   */\n      0x20\n        /* \"#utility.yul\":230:235   */\n      dup2\n        /* \"#utility.yul\":226:242   */\n      add\n        /* \"#utility.yul\":275:278   */\n      dup5\n        /* \"#utility.yul\":266:272   */\n      dup5\n        /* \"#utility.yul\":261:264   */\n      dup5\n        /* \"#utility.yul\":257:273   */\n      add\n        /* \"#utility.yul\":254:279   */\n      gt\n        /* \"#utility.yul\":251:363   */\n      iszero\n      tag_60\n      jumpi\n        /* \"#utility.yul\":282:361   */\n      tag_61\n      tag_62\n      jump\t// in\n    tag_61:\n        /* \"#utility.yul\":251:363   */\n    tag_60:\n        /* \"#utility.yul\":372:413   */\n      tag_63\n        /* \"#utility.yul\":406:412   */\n      dup5\n        /* \"#utility.yul\":401:404   */\n      dup3\n        /* \"#utility.yul\":396:399   */\n      dup6\n        /* \"#utility.yul\":372:413   */\n      tag_64\n      jump\t// in\n    tag_63:\n        /* \"#utility.yul\":91:419   */\n      pop\n        /* \"#utility.yul\":7:419   */\n      swap4\n      swap3\n      pop\n      pop\n      pop\n      jump\t// out\n        /* \"#utility.yul\":425:564   */\n    tag_65:\n        /* \"#utility.yul\":471:476   */\n      0x00\n        /* \"#utility.yul\":509:515   */\n      dup2\n        /* \"#utility.yul\":496:516   */\n      calldataload\n        /* \"#utility.yul\":487:516   */\n      swap1\n      pop\n        /* \"#utility.yul\":525:558   */\n      tag_67\n        /* \"#utility.yul\":552:557   */\n      dup2\n        /* \"#utility.yul\":525:558   */\n      tag_68\n      jump\t// in\n    tag_67:\n        /* \"#utility.yul\":425:564   */\n      swap3\n      swap2\n      pop\n      pop\n      jump\t// out\n        /* \"#utility.yul\":584:924   */\n    tag_69:\n        /* \"#utility.yul\":640:645   */\n      0x00\n        /* \"#utility.yul\":689:692   */\n      dup3\n        /* \"#utility.yul\":682:686   */\n      0x1f\n        /* \"#utility.yul\":674:680   */\n      dup4\n        /* \"#utility.yul\":670:687   */\n      add\n        /* \"#utility.yul\":666:693   */\n      slt\n        /* \"#utility.yul\":656:778   */\n      tag_71\n      jumpi\n        /* \"#utility.yul\":697:776   */\n      tag_72\n      tag_73\n      jump\t// in\n    tag_72:\n        /* \"#utility.yul\":656:778   */\n    tag_71:\n        /* \"#utility.yul\":814:820   */\n      dup2\n        /* \"#utility.yul\":801:821   */\n      calldataload\n        /* \"#utility.yul\":839:918   */\n      tag_74\n        /* \"#utility.yul\":914:917   */\n      dup5\n        /* \"#utility.yul\":906:912   */\n      dup3\n        /* \"#utility.yul\":899:903   */\n      0x20\n        /* \"#utility.yul\":891:897   */\n      dup7\n        /* \"#utility.yul\":887:904   */\n      add\n        /* \"#utility.yul\":839:918   */\n      tag_54\n      jump\t// in\n    tag_74:\n        /* \"#utility.yul\":830:918   */\n      swap2\n      pop\n        /* \"#utility.yul\":646:924   */\n      pop\n        /* \"#utility.yul\":584:924   */\n      swap3\n      swap2\n      pop\n      pop\n      jump\t// out\n        /* \"#utility.yul\":930:1069   */\n    tag_75:\n        /* \"#utility.yul\":976:981   */\n      0x00\n        /* \"#utility.yul\":1014:1020   */\n      dup2\n        /* \"#utility.yul\":1001:1021   */\n      calldataload\n        /* \"#utility.yul\":992:1021   */\n      swap1\n      pop\n        /* \"#utility.yul\":1030:1063   */\n      tag_77\n        /* \"#utility.yul\":1057:1062   */\n      dup2\n        /* \"#utility.yul\":1030:1063   */\n      tag_78\n      jump\t// in\n    tag_77:\n        /* \"#utility.yul\":930:1069   */\n      swap3\n      swap2\n      pop\n      pop\n      jump\t// out\n        /* \"#utility.yul\":1075:2054   */\n    tag_7:\n        /* \"#utility.yul\":1172:1178   */\n      0x00\n        /* \"#utility.yul\":1180:1186   */\n      dup1\n        /* \"#utility.yul\":1188:1194   */\n      0x00\n        /* \"#utility.yul\":1237:1239   */\n      0x60\n        /* \"#utility.yul\":1225:1234   */\n      dup5\n        /* \"#utility.yul\":1216:1223   */\n      dup7\n        /* \"#utility.yul\":1212:1235   */\n      sub\n        /* \"#utility.yul\":1208:1240   */\n      slt\n        /* \"#utility.yul\":1205:1324   */\n      iszero\n      tag_80\n      jumpi\n        /* \"#utility.yul\":1243:1322   */\n      tag_81\n      tag_82\n      jump\t// in\n    tag_81:\n        /* \"#utility.yul\":1205:1324   */\n    tag_80:\n        /* \"#utility.yul\":1363:1364   */\n      0x00\n        /* \"#utility.yul\":1388:1441   */\n      tag_83\n        /* \"#utility.yul\":1433:1440   */\n      dup7\n        /* \"#utility.yul\":1424:1430   */\n      dup3\n        /* \"#utility.yul\":1413:1422   */\n      dup8\n        /* \"#utility.yul\":1409:1431   */\n      add\n        /* \"#utility.yul\":1388:1441   */\n      tag_65\n      jump\t// in\n    tag_83:\n        /* \"#utility.yul\":1378:1441   */\n      swap4\n      pop\n        /* \"#utility.yul\":1334:1451   */\n      pop\n        /* \"#utility.yul\":1518:1520   */\n      0x20\n        /* \"#utility.yul\":1507:1516   */\n      dup5\n        /* \"#utility.yul\":1503:1521   */\n      add\n        /* \"#utility.yul\":1490:1522   */\n      calldataload\n        /* \"#utility.yul\":1549:1567   */\n      0xffffffffffffffff\n        /* \"#utility.yul\":1541:1547   */\n      dup2\n        /* \"#utility.yul\":1538:1568   */\n      gt\n        /* \"#utility.yul\":1535:1652   */\n      iszero\n      tag_84\n      jumpi\n        /* \"#utility.yul\":1571:1650   */\n      tag_85\n      tag_86\n      jump\t// in\n    tag_85:\n        /* \"#utility.yul\":1535:1652   */\n    tag_84:\n        /* \"#utility.yul\":1676:1739   */\n      tag_87\n        /* \"#utility.yul\":1731:1738   */\n      dup7\n        /* \"#utility.yul\":1722:1728   */\n      dup3\n        /* \"#utility.yul\":1711:1720   */\n      dup8\n        /* \"#utility.yul\":1707:1729   */\n      add\n        /* \"#utility.yul\":1676:1739   */\n      tag_69\n      jump\t// in\n    tag_87:\n        /* \"#utility.yul\":1666:1739   */\n      swap3\n      pop\n        /* \"#utility.yul\":1461:1749   */\n      pop\n        /* \"#utility.yul\":1816:1818   */\n      0x40\n        /* \"#utility.yul\":1805:1814   */\n      dup5\n        /* \"#utility.yul\":1801:1819   */\n      add\n        /* \"#utility.yul\":1788:1820   */\n      calldataload\n        /* \"#utility.yul\":1847:1865   */\n      0xffffffffffffffff\n        /* \"#utility.yul\":1839:1845   */\n      dup2\n        /* \"#utility.yul\":1836:1866   */\n      gt\n        /* \"#utility.yul\":1833:1950   */\n      iszero\n      tag_88\n      jumpi\n        /* \"#utility.yul\":1869:1948   */\n      tag_89\n      tag_86\n      jump\t// in\n    tag_89:\n        /* \"#utility.yul\":1833:1950   */\n    tag_88:\n        /* \"#utility.yul\":1974:2037   */\n      tag_90\n        /* \"#utility.yul\":2029:2036   */\n      dup7\n        /* \"#utility.yul\":2020:2026   */\n      dup3\n        /* \"#utility.yul\":2009:2018   */\n      dup8\n        /* \"#utility.yul\":2005:2027   */\n      add\n        /* \"#utility.yul\":1974:2037   */\n      tag_69\n      jump\t// in\n    tag_90:\n        /* \"#utility.yul\":1964:2037   */\n      swap2\n      pop\n        /* \"#utility.yul\":1759:2047   */\n      pop\n        /* \"#utility.yul\":1075:2054   */\n      swap3\n      pop\n      swap3\n      pop\n      swap3\n      jump\t// out\n        /* \"#utility.yul\":2060:2859   */\n    tag_11:\n        /* \"#utility.yul\":2147:2153   */\n      0x00\n        /* \"#utility.yul\":2155:2161   */\n      dup1\n        /* \"#utility.yul\":2163:2169   */\n      0x00\n        /* \"#utility.yul\":2212:2214   */\n      0x60\n        /* \"#utility.yul\":2200:2209   */\n      dup5\n        /* \"#utility.yul\":2191:2198   */\n      dup7\n        /* \"#utility.yul\":2187:2210   */\n      sub\n        /* \"#utility.yul\":2183:2215   */\n      slt\n        /* \"#utility.yul\":2180:2299   */\n      iszero\n      tag_92\n      jumpi\n        /* \"#utility.yul\":2218:2297   */\n      tag_93\n      tag_82\n      jump\t// in\n    tag_93:\n        /* \"#utility.yul\":2180:2299   */\n    tag_92:\n        /* \"#utility.yul\":2338:2339   */\n      0x00\n        /* \"#utility.yul\":2363:2416   */\n      tag_94\n        /* \"#utility.yul\":2408:2415   */\n      dup7\n        /* \"#utility.yul\":2399:2405   */\n      dup3\n        /* \"#utility.yul\":2388:2397   */\n      dup8\n        /* \"#utility.yul\":2384:2406   */\n      add\n        /* \"#utility.yul\":2363:2416   */\n      tag_65\n      jump\t// in\n    tag_94:\n        /* \"#utility.yul\":2353:2416   */\n      swap4\n      pop\n        /* \"#utility.yul\":2309:2426   */\n      pop\n        /* \"#utility.yul\":2465:2467   */\n      0x20\n        /* \"#utility.yul\":2491:2544   */\n      tag_95\n        /* \"#utility.yul\":2536:2543   */\n      dup7\n        /* \"#utility.yul\":2527:2533   */\n      dup3\n        /* \"#utility.yul\":2516:2525   */\n      dup8\n        /* \"#utility.yul\":2512:2534   */\n      add\n        /* \"#utility.yul\":2491:2544   */\n      tag_75\n      jump\t// in\n    tag_95:\n        /* \"#utility.yul\":2481:2544   */\n      swap3\n      pop\n        /* \"#utility.yul\":2436:2554   */\n      pop\n        /* \"#utility.yul\":2621:2623   */\n      0x40\n        /* \"#utility.yul\":2610:2619   */\n      dup5\n        /* \"#utility.yul\":2606:2624   */\n      add\n        /* \"#utility.yul\":2593:2625   */\n      calldataload\n        /* \"#utility.yul\":2652:2670   */\n      0xffffffffffffffff\n        /* \"#utility.yul\":2644:2650   */\n      dup2\n        /* \"#utility.yul\":2641:2671   */\n      gt\n        /* \"#utility.yul\":2638:2755   */\n      iszero\n      tag_96\n      jumpi\n        /* \"#utility.yul\":2674:2753   */\n      tag_97\n      tag_86\n      jump\t// in\n    tag_97:\n        /* \"#utility.yul\":2638:2755   */\n    tag_96:\n        /* \"#utility.yul\":2779:2842   */\n      tag_98\n        /* \"#utility.yul\":2834:2841   */\n      dup7\n        /* \"#utility.yul\":2825:2831   */\n      dup3\n        /* \"#utility.yul\":2814:2823   */\n      dup8\n        /* \"#utility.yul\":2810:2832   */\n      add\n        /* \"#utility.yul\":2779:2842   */\n      tag_69\n      jump\t// in\n    tag_98:\n        /* \"#utility.yul\":2769:2842   */\n      swap2\n      pop\n        /* \"#utility.yul\":2564:2852   */\n      pop\n        /* \"#utility.yul\":2060:2859   */\n      swap3\n      pop\n      swap3\n      pop\n      swap3\n      jump\t// out\n        /* \"#utility.yul\":2865:3231   */\n    tag_99:\n        /* \"#utility.yul\":3007:3010   */\n      0x00\n        /* \"#utility.yul\":3028:3095   */\n      tag_101\n        /* \"#utility.yul\":3092:3094   */\n      0x0d\n        /* \"#utility.yul\":3087:3090   */\n      dup4\n        /* \"#utility.yul\":3028:3095   */\n      tag_102\n      jump\t// in\n    tag_101:\n        /* \"#utility.yul\":3021:3095   */\n      swap2\n      pop\n        /* \"#utility.yul\":3104:3197   */\n      tag_103\n        /* \"#utility.yul\":3193:3196   */\n      dup3\n        /* \"#utility.yul\":3104:3197   */\n      tag_104\n      jump\t// in\n    tag_103:\n        /* \"#utility.yul\":3222:3224   */\n      0x20\n        /* \"#utility.yul\":3217:3220   */\n      dup3\n        /* \"#utility.yul\":3213:3225   */\n      add\n        /* \"#utility.yul\":3206:3225   */\n      swap1\n      pop\n        /* \"#utility.yul\":2865:3231   */\n      swap2\n      swap1\n      pop\n      jump\t// out\n        /* \"#utility.yul\":3237:3603   */\n    tag_105:\n        /* \"#utility.yul\":3379:3382   */\n      0x00\n        /* \"#utility.yul\":3400:3467   */\n      tag_107\n        /* \"#utility.yul\":3464:3466   */\n      0x15\n        /* \"#utility.yul\":3459:3462   */\n      dup4\n        /* \"#utility.yul\":3400:3467   */\n      tag_102\n      jump\t// in\n    tag_107:\n        /* \"#utility.yul\":3393:3467   */\n      swap2\n      pop\n        /* \"#utility.yul\":3476:3569   */\n      tag_108\n        /* \"#utility.yul\":3565:3568   */\n      dup3\n        /* \"#utility.yul\":3476:3569   */\n      tag_109\n      jump\t// in\n    tag_108:\n        /* \"#utility.yul\":3594:3596   */\n      0x20\n        /* \"#utility.yul\":3589:3592   */\n      dup3\n        /* \"#utility.yul\":3585:3597   */\n      add\n        /* \"#utility.yul\":3578:3597   */\n      swap1\n      pop\n        /* \"#utility.yul\":3237:3603   */\n      swap2\n      swap1\n      pop\n      jump\t// out\n        /* \"#utility.yul\":3609:3975   */\n    tag_110:\n        /* \"#utility.yul\":3751:3754   */\n      0x00\n        /* \"#utility.yul\":3772:3839   */\n      tag_112\n        /* \"#utility.yul\":3836:3838   */\n      0x0b\n        /* \"#utility.yul\":3831:3834   */\n      dup4\n        /* \"#utility.yul\":3772:3839   */\n      tag_102\n      jump\t// in\n    tag_112:\n        /* \"#utility.yul\":3765:3839   */\n      swap2\n      pop\n        /* \"#utility.yul\":3848:3941   */\n      tag_113\n        /* \"#utility.yul\":3937:3940   */\n      dup3\n        /* \"#utility.yul\":3848:3941   */\n      tag_114\n      jump\t// in\n    tag_113:\n        /* \"#utility.yul\":3966:3968   */\n      0x20\n        /* \"#utility.yul\":3961:3964   */\n      dup3\n        /* \"#utility.yul\":3957:3969   */\n      add\n        /* \"#utility.yul\":3950:3969   */\n      swap1\n      pop\n        /* \"#utility.yul\":3609:3975   */\n      swap2\n      swap1\n      pop\n      jump\t// out\n        /* \"#utility.yul\":3981:4400   */\n    tag_16:\n        /* \"#utility.yul\":4147:4151   */\n      0x00\n        /* \"#utility.yul\":4185:4187   */\n      0x20\n        /* \"#utility.yul\":4174:4183   */\n      dup3\n        /* \"#utility.yul\":4170:4188   */\n      add\n        /* \"#utility.yul\":4162:4188   */\n      swap1\n      pop\n        /* \"#utility.yul\":4234:4243   */\n      dup2\n        /* \"#utility.yul\":4228:4232   */\n      dup2\n        /* \"#utility.yul\":4224:4244   */\n      sub\n        /* \"#utility.yul\":4220:4221   */\n      0x00\n        /* \"#utility.yul\":4209:4218   */\n      dup4\n        /* \"#utility.yul\":4205:4222   */\n      add\n        /* \"#utility.yul\":4198:4245   */\n      mstore\n        /* \"#utility.yul\":4262:4393   */\n      tag_116\n        /* \"#utility.yul\":4388:4392   */\n      dup2\n        /* \"#utility.yul\":4262:4393   */\n      tag_99\n      jump\t// in\n    tag_116:\n        /* \"#utility.yul\":4254:4393   */\n      swap1\n      pop\n        /* \"#utility.yul\":3981:4400   */\n      swap2\n      swap1\n      pop\n      jump\t// out\n        /* \"#utility.yul\":4406:4825   */\n    tag_39:\n        /* \"#utility.yul\":4572:4576   */\n      0x00\n        /* \"#utility.yul\":4610:4612   */\n      0x20\n        /* \"#utility.yul\":4599:4608   */\n      dup3\n        /* \"#utility.yul\":4595:4613   */\n      add\n        /* \"#utility.yul\":4587:4613   */\n      swap1\n      pop\n        /* \"#utility.yul\":4659:4668   */\n      dup2\n        /* \"#utility.yul\":4653:4657   */\n      dup2\n        /* \"#utility.yul\":4649:4669   */\n      sub\n        /* \"#utility.yul\":4645:4646   */\n      0x00\n        /* \"#utility.yul\":4634:4643   */\n      dup4\n        /* \"#utility.yul\":4630:4647   */\n      add\n        /* \"#utility.yul\":4623:4670   */\n      mstore\n        /* \"#utility.yul\":4687:4818   */\n      tag_118\n        /* \"#utility.yul\":4813:4817   */\n      dup2\n        /* \"#utility.yul\":4687:4818   */\n      tag_105\n      jump\t// in\n    tag_118:\n        /* \"#utility.yul\":4679:4818   */\n      swap1\n      pop\n        /* \"#utility.yul\":4406:4825   */\n      swap2\n      swap1\n      pop\n      jump\t// out\n        /* \"#utility.yul\":4831:5250   */\n    tag_25:\n        /* \"#utility.yul\":4997:5001   */\n      0x00\n        /* \"#utility.yul\":5035:5037   */\n      0x20\n        /* \"#utility.yul\":5024:5033   */\n      dup3\n        /* \"#utility.yul\":5020:5038   */\n      add\n        /* \"#utility.yul\":5012:5038   */\n      swap1\n      pop\n        /* \"#utility.yul\":5084:5093   */\n      dup2\n        /* \"#utility.yul\":5078:5082   */\n      dup2\n        /* \"#utility.yul\":5074:5094   */\n      sub\n        /* \"#utility.yul\":5070:5071   */\n      0x00\n        /* \"#utility.yul\":5059:5068   */\n      dup4\n        /* \"#utility.yul\":5055:5072   */\n      add\n        /* \"#utility.yul\":5048:5095   */\n      mstore\n        /* \"#utility.yul\":5112:5243   */\n      tag_120\n        /* \"#utility.yul\":5238:5242   */\n      dup2\n        /* \"#utility.yul\":5112:5243   */\n      tag_110\n      jump\t// in\n    tag_120:\n        /* \"#utility.yul\":5104:5243   */\n      swap1\n      pop\n        /* \"#utility.yul\":4831:5250   */\n      swap2\n      swap1\n      pop\n      jump\t// out\n        /* \"#utility.yul\":5256:5385   */\n    tag_59:\n        /* \"#utility.yul\":5290:5296   */\n      0x00\n        /* \"#utility.yul\":5317:5337   */\n      tag_122\n      tag_123\n      jump\t// in\n    tag_122:\n        /* \"#utility.yul\":5307:5337   */\n      swap1\n      pop\n        /* \"#utility.yul\":5346:5379   */\n      tag_124\n        /* \"#utility.yul\":5374:5378   */\n      dup3\n        /* \"#utility.yul\":5366:5372   */\n      dup3\n        /* \"#utility.yul\":5346:5379   */\n      tag_125\n      jump\t// in\n    tag_124:\n        /* \"#utility.yul\":5256:5385   */\n      swap2\n      swap1\n      pop\n      jump\t// out\n        /* \"#utility.yul\":5391:5466   */\n    tag_123:\n        /* \"#utility.yul\":5424:5430   */\n      0x00\n        /* \"#utility.yul\":5457:5459   */\n      0x40\n        /* \"#utility.yul\":5451:5460   */\n      mload\n        /* \"#utility.yul\":5441:5460   */\n      swap1\n      pop\n        /* \"#utility.yul\":5391:5466   */\n      swap1\n      jump\t// out\n        /* \"#utility.yul\":5472:5780   */\n    tag_58:\n        /* \"#utility.yul\":5534:5538   */\n      0x00\n        /* \"#utility.yul\":5624:5642   */\n      0xffffffffffffffff\n        /* \"#utility.yul\":5616:5622   */\n      dup3\n        /* \"#utility.yul\":5613:5643   */\n      gt\n        /* \"#utility.yul\":5610:5666   */\n      iszero\n      tag_128\n      jumpi\n        /* \"#utility.yul\":5646:5664   */\n      tag_129\n      tag_130\n      jump\t// in\n    tag_129:\n        /* \"#utility.yul\":5610:5666   */\n    tag_128:\n        /* \"#utility.yul\":5684:5713   */\n      tag_131\n        /* \"#utility.yul\":5706:5712   */\n      dup3\n        /* \"#utility.yul\":5684:5713   */\n      tag_132\n      jump\t// in\n    tag_131:\n        /* \"#utility.yul\":5676:5713   */\n      swap1\n      pop\n        /* \"#utility.yul\":5768:5772   */\n      0x20\n        /* \"#utility.yul\":5762:5766   */\n      dup2\n        /* \"#utility.yul\":5758:5773   */\n      add\n        /* \"#utility.yul\":5750:5773   */\n      swap1\n      pop\n        /* \"#utility.yul\":5472:5780   */\n      swap2\n      swap1\n      pop\n      jump\t// out\n        /* \"#utility.yul\":5786:5955   */\n    tag_102:\n        /* \"#utility.yul\":5870:5881   */\n      0x00\n        /* \"#utility.yul\":5904:5910   */\n      dup3\n        /* \"#utility.yul\":5899:5902   */\n      dup3\n        /* \"#utility.yul\":5892:5911   */\n      mstore\n        /* \"#utility.yul\":5944:5948   */\n      0x20\n        /* \"#utility.yul\":5939:5942   */\n      dup3\n        /* \"#utility.yul\":5935:5949   */\n      add\n        /* \"#utility.yul\":5920:5949   */\n      swap1\n      pop\n        /* \"#utility.yul\":5786:5955   */\n      swap3\n      swap2\n      pop\n      pop\n      jump\t// out\n        /* \"#utility.yul\":5961:6057   */\n    tag_134:\n        /* \"#utility.yul\":5998:6005   */\n      0x00\n        /* \"#utility.yul\":6027:6051   */\n      tag_136\n        /* \"#utility.yul\":6045:6050   */\n      dup3\n        /* \"#utility.yul\":6027:6051   */\n      tag_137\n      jump\t// in\n    tag_136:\n        /* \"#utility.yul\":6016:6051   */\n      swap1\n      pop\n        /* \"#utility.yul\":5961:6057   */\n      swap2\n      swap1\n      pop\n      jump\t// out\n        /* \"#utility.yul\":6063:6189   */\n    tag_137:\n        /* \"#utility.yul\":6100:6107   */\n      0x00\n        /* \"#utility.yul\":6140:6182   */\n      0xffffffffffffffffffffffffffffffffffffffff\n        /* \"#utility.yul\":6133:6138   */\n      dup3\n        /* \"#utility.yul\":6129:6183   */\n      and\n        /* \"#utility.yul\":6118:6183   */\n      swap1\n      pop\n        /* \"#utility.yul\":6063:6189   */\n      swap2\n      swap1\n      pop\n      jump\t// out\n        /* \"#utility.yul\":6195:6272   */\n    tag_139:\n        /* \"#utility.yul\":6232:6239   */\n      0x00\n        /* \"#utility.yul\":6261:6266   */\n      dup2\n        /* \"#utility.yul\":6250:6266   */\n      swap1\n      pop\n        /* \"#utility.yul\":6195:6272   */\n      swap2\n      swap1\n      pop\n      jump\t// out\n        /* \"#utility.yul\":6278:6432   */\n    tag_64:\n        /* \"#utility.yul\":6362:6368   */\n      dup3\n        /* \"#utility.yul\":6357:6360   */\n      dup2\n        /* \"#utility.yul\":6352:6355   */\n      dup4\n        /* \"#utility.yul\":6339:6369   */\n      calldatacopy\n        /* \"#utility.yul\":6424:6425   */\n      0x00\n        /* \"#utility.yul\":6415:6421   */\n      dup4\n        /* \"#utility.yul\":6410:6413   */\n      dup4\n        /* \"#utility.yul\":6406:6422   */\n      add\n        /* \"#utility.yul\":6399:6426   */\n      mstore\n        /* \"#utility.yul\":6278:6432   */\n      pop\n      pop\n      pop\n      jump\t// out\n        /* \"#utility.yul\":6438:6758   */\n    tag_18:\n        /* \"#utility.yul\":6482:6488   */\n      0x00\n        /* \"#utility.yul\":6519:6520   */\n      0x02\n        /* \"#utility.yul\":6513:6517   */\n      dup3\n        /* \"#utility.yul\":6509:6521   */\n      div\n        /* \"#utility.yul\":6499:6521   */\n      swap1\n      pop\n        /* \"#utility.yul\":6566:6567   */\n      0x01\n        /* \"#utility.yul\":6560:6564   */\n      dup3\n        /* \"#utility.yul\":6556:6568   */\n      and\n        /* \"#utility.yul\":6587:6605   */\n      dup1\n        /* \"#utility.yul\":6577:6658   */\n      tag_143\n      jumpi\n        /* \"#utility.yul\":6643:6647   */\n      0x7f\n        /* \"#utility.yul\":6635:6641   */\n      dup3\n        /* \"#utility.yul\":6631:6648   */\n      and\n        /* \"#utility.yul\":6621:6648   */\n      swap2\n      pop\n        /* \"#utility.yul\":6577:6658   */\n    tag_143:\n        /* \"#utility.yul\":6705:6707   */\n      0x20\n        /* \"#utility.yul\":6697:6703   */\n      dup3\n        /* \"#utility.yul\":6694:6708   */\n      lt\n        /* \"#utility.yul\":6674:6692   */\n      dup2\n        /* \"#utility.yul\":6671:6709   */\n      eq\n        /* \"#utility.yul\":6668:6752   */\n      iszero\n      tag_144\n      jumpi\n        /* \"#utility.yul\":6724:6742   */\n      tag_145\n      tag_146\n      jump\t// in\n    tag_145:\n        /* \"#utility.yul\":6668:6752   */\n    tag_144:\n        /* \"#utility.yul\":6489:6758   */\n      pop\n        /* \"#utility.yul\":6438:6758   */\n      swap2\n      swap1\n      pop\n      jump\t// out\n        /* \"#utility.yul\":6764:7045   */\n    tag_125:\n        /* \"#utility.yul\":6847:6874   */\n      tag_148\n        /* \"#utility.yul\":6869:6873   */\n      dup3\n        /* \"#utility.yul\":6847:6874   */\n      tag_132\n      jump\t// in\n    tag_148:\n        /* \"#utility.yul\":6839:6845   */\n      dup2\n        /* \"#utility.yul\":6835:6875   */\n      add\n        /* \"#utility.yul\":6977:6983   */\n      dup2\n        /* \"#utility.yul\":6965:6975   */\n      dup2\n        /* \"#utility.yul\":6962:6984   */\n      lt\n        /* \"#utility.yul\":6941:6959   */\n      0xffffffffffffffff\n        /* \"#utility.yul\":6929:6939   */\n      dup3\n        /* \"#utility.yul\":6926:6960   */\n      gt\n        /* \"#utility.yul\":6923:6985   */\n      or\n        /* \"#utility.yul\":6920:7008   */\n      iszero\n      tag_149\n      jumpi\n        /* \"#utility.yul\":6988:7006   */\n      tag_150\n      tag_130\n      jump\t// in\n    tag_150:\n        /* \"#utility.yul\":6920:7008   */\n    tag_149:\n        /* \"#utility.yul\":7028:7038   */\n      dup1\n        /* \"#utility.yul\":7024:7026   */\n      0x40\n        /* \"#utility.yul\":7017:7039   */\n      mstore\n        /* \"#utility.yul\":6807:7045   */\n      pop\n        /* \"#utility.yul\":6764:7045   */\n      pop\n      pop\n      jump\t// out\n        /* \"#utility.yul\":7051:7284   */\n    tag_42:\n        /* \"#utility.yul\":7090:7093   */\n      0x00\n        /* \"#utility.yul\":7113:7137   */\n      tag_152\n        /* \"#utility.yul\":7131:7136   */\n      dup3\n        /* \"#utility.yul\":7113:7137   */\n      tag_139\n      jump\t// in\n    tag_152:\n        /* \"#utility.yul\":7104:7137   */\n      swap2\n      pop\n        /* \"#utility.yul\":7159:7225   */\n      0xffffffffffffffffffffffffffffffffffffffffffffffffffffffffffffffff\n        /* \"#utility.yul\":7152:7157   */\n      dup3\n        /* \"#utility.yul\":7149:7226   */\n      eq\n        /* \"#utility.yul\":7146:7249   */\n      iszero\n      tag_153\n      jumpi\n        /* \"#utility.yul\":7229:7247   */\n      tag_154\n      tag_155\n      jump\t// in\n    tag_154:\n        /* \"#utility.yul\":7146:7249   */\n    tag_153:\n        /* \"#utility.yul\":7276:7277   */\n      0x01\n        /* \"#utility.yul\":7269:7274   */\n      dup3\n        /* \"#utility.yul\":7265:7278   */\n      add\n        /* \"#utility.yul\":7258:7278   */\n      swap1\n      pop\n        /* \"#utility.yul\":7051:7284   */\n      swap2\n      swap1\n      pop\n      jump\t// out\n        /* \"#utility.yul\":7290:7470   */\n    tag_155:\n        /* \"#utility.yul\":7338:7415   */\n      0x4e487b7100000000000000000000000000000000000000000000000000000000\n        /* \"#utility.yul\":7335:7336   */\n      0x00\n        /* \"#utility.yul\":7328:7416   */\n      mstore\n        /* \"#utility.yul\":7435:7439   */\n      0x11\n        /* \"#utility.yul\":7432:7433   */\n      0x04\n        /* \"#utility.yul\":7425:7440   */\n      mstore\n        /* \"#utility.yul\":7459:7463   */\n      0x24\n        /* \"#utility.yul\":7456:7457   */\n      0x00\n        /* \"#utility.yul\":7449:7464   */\n      revert\n        /* \"#utility.yul\":7476:7656   */\n    tag_146:\n        /* \"#utility.yul\":7524:7601   */\n      0x4e487b7100000000000000000000000000000000000000000000000000000000\n        /* \"#utility.yul\":7521:7522   */\n      0x00\n        /* \"#utility.yul\":7514:7602   */\n      mstore\n        /* \"#utility.yul\":7621:7625   */\n      0x22\n        /* \"#utility.yul\":7618:7619   */\n      0x04\n        /* \"#utility.yul\":7611:7626   */\n      mstore\n        /* \"#utility.yul\":7645:7649   */\n      0x24\n        /* \"#utility.yul\":7642:7643   */\n      0x00\n        /* \"#utility.yul\":7635:7650   */\n      revert\n        /* \"#utility.yul\":7662:7842   */\n    tag_130:\n        /* \"#utility.yul\":7710:7787   */\n      0x4e487b7100000000000000000000000000000000000000000000000000000000\n        /* \"#utility.yul\":7707:7708   */\n      0x00\n        /* \"#utility.yul\":7700:7788   */\n      mstore\n        /* \"#utility.yul\":7807:7811   */\n      0x41\n        /* \"#utility.yul\":7804:7805   */\n      0x04\n        /* \"#utility.yul\":7797:7812   */\n      mstore\n        /* \"#utility.yul\":7831:7835   */\n      0x24\n        /* \"#utility.yul\":7828:7829   */\n      0x00\n        /* \"#utility.yul\":7821:7836   */\n      revert\n        /* \"#utility.yul\":7848:7965   */\n    tag_73:\n        /* \"#utility.yul\":7957:7958   */\n      0x00\n        /* \"#utility.yul\":7954:7955   */\n      dup1\n        /* \"#utility.yul\":7947:7959   */\n      revert\n        /* \"#utility.yul\":7971:8088   */\n    tag_62:\n        /* \"#utility.yul\":8080:8081   */\n      0x00\n        /* \"#utility.yul\":8077:8078   */\n      dup1\n        /* \"#utility.yul\":8070:8082   */\n      revert\n        /* \"#utility.yul\":8094:8211   */\n    tag_86:\n        /* \"#utility.yul\":8203:8204   */\n      0x00\n        /* \"#utility.yul\":8200:8201   */\n      dup1\n        /* \"#utility.yul\":8193:8205   */\n      revert\n        /* \"#utility.yul\":8217:8334   */\n    tag_82:\n        /* \"#utility.yul\":8326:8327   */\n      0x00\n        /* \"#utility.yul\":8323:8324   */\n      dup1\n        /* \"#utility.yul\":8316:8328   */\n      revert\n        /* \"#utility.yul\":8340:8442   */\n    tag_132:\n        /* \"#utility.yul\":8381:8387   */\n      0x00\n        /* \"#utility.yul\":8432:8434   */\n      0x1f\n        /* \"#utility.yul\":8428:8435   */\n      not\n        /* \"#utility.yul\":8423:8425   */\n      0x1f\n        /* \"#utility.yul\":8416:8421   */\n      dup4\n        /* \"#utility.yul\":8412:8426   */\n      add\n        /* \"#utility.yul\":8408:8436   */\n      and\n        /* \"#utility.yul\":8398:8436   */\n      swap1\n      pop\n        /* \"#utility.yul\":8340:8442   */\n      swap2\n      swap1\n      pop\n      jump\t// out\n        /* \"#utility.yul\":8448:8611   */\n    tag_104:\n        /* \"#utility.yul\":8588:8603   */\n      0x4e6f7420746865206f776e657200000000000000000000000000000000000000\n        /* \"#utility.yul\":8584:8585   */\n      0x00\n        /* \"#utility.yul\":8576:8582   */\n      dup3\n        /* \"#utility.yul\":8572:8586   */\n      add\n        /* \"#utility.yul\":8565:8604   */\n      mstore\n        /* \"#utility.yul\":8448:8611   */\n      pop\n      jump\t// out\n        /* \"#utility.yul\":8617:8788   */\n    tag_109:\n        /* \"#utility.yul\":8757:8780   */\n      0x496c2066617574206372656572206c27656c6576650000000000000000000000\n        /* \"#utility.yul\":8753:8754   */\n      0x00\n        /* \"#utility.yul\":8745:8751   */\n      dup3\n        /* \"#utility.yul\":8741:8755   */\n      add\n        /* \"#utility.yul\":8734:8781   */\n      mstore\n        /* \"#utility.yul\":8617:8788   */\n      pop\n      jump\t// out\n        /* \"#utility.yul\":8794:8955   */\n    tag_114:\n        /* \"#utility.yul\":8934:8947   */\n      0x4578697374652064656a61000000000000000000000000000000000000000000\n        /* \"#utility.yul\":8930:8931   */\n      0x00\n        /* \"#utility.yul\":8922:8928   */\n      dup3\n        /* \"#utility.yul\":8918:8932   */\n      add\n        /* \"#utility.yul\":8911:8948   */\n      mstore\n        /* \"#utility.yul\":8794:8955   */\n      pop\n      jump\t// out\n        /* \"#utility.yul\":8961:9083   */\n    tag_68:\n        /* \"#utility.yul\":9034:9058   */\n      tag_168\n        /* \"#utility.yul\":9052:9057   */\n      dup2\n        /* \"#utility.yul\":9034:9058   */\n      tag_134\n      jump\t// in\n    tag_168:\n        /* \"#utility.yul\":9027:9032   */\n      dup2\n        /* \"#utility.yul\":9024:9059   */\n      eq\n        /* \"#utility.yul\":9014:9077   */\n      tag_169\n      jumpi\n        /* \"#utility.yul\":9073:9074   */\n      0x00\n        /* \"#utility.yul\":9070:9071   */\n      dup1\n        /* \"#utility.yul\":9063:9075   */\n      revert\n        /* \"#utility.yul\":9014:9077   */\n    tag_169:\n        /* \"#utility.yul\":8961:9083   */\n      pop\n      jump\t// out\n        /* \"#utility.yul\":9089:9211   */\n    tag_78:\n        /* \"#utility.yul\":9162:9186   */\n      tag_171\n        /* \"#utility.yul\":9180:9185   */\n      dup2\n        /* \"#utility.yul\":9162:9186   */\n      tag_139\n      jump\t// in\n    tag_171:\n        /* \"#utility.yul\":9155:9160   */\n      dup2\n        /* \"#utility.yul\":9152:9187   */\n      eq\n        /* \"#utility.yul\":9142:9205   */\n      tag_172\n      jumpi\n        /* \"#utility.yul\":9201:9202   */\n      0x00\n        /* \"#utility.yul\":9198:9199   */\n      dup1\n        /* \"#utility.yul\":9191:9203   */\n      revert\n        /* \"#utility.yul\":9142:9205   */\n    tag_172:\n        /* \"#utility.yul\":9089:9211   */\n      pop\n      jump\t// out\n\n    auxdata: 0xa26469706673582212207992f7d502918cacc52cb9fa182aa49e2c5b6a26c9fa164a5532039fec27dc0e64736f6c63430008070033\n}\n",
				"bytecode": {
					"linkReferences": {},
					"object": "608060405234801561001057600080fd5b50610c00806100206000396000f3fe608060405234801561001057600080fd5b50600436106100365760003560e01c8063698ba90e1461003b578063f4bb08de14610057575b600080fd5b6100556004803603810190610050919061074e565b610073565b005b610071600480360381019061006c91906107d9565b6102c8565b005b60008054906101000a900473ffffffffffffffffffffffffffffffffffffffff1673ffffffffffffffffffffffffffffffffffffffff163373ffffffffffffffffffffffffffffffffffffffff1614610101576040517f08c379a00000000000000000000000000000000000000000000000000000000081526004016100f8906108b1565b60405180910390fd5b6000600160008573ffffffffffffffffffffffffffffffffffffffff1673ffffffffffffffffffffffffffffffffffffffff1681526020019081526020016000206000018054610150906109c3565b80601f016020809104026020016040519081016040528092919081815260200182805461017c906109c3565b80156101c95780601f1061019e576101008083540402835291602001916101c9565b820191906000526020600020905b8154815290600101906020018083116101ac57829003601f168201915b505050505090506000815114610214576040517f08c379a000000000000000000000000000000000000000000000000000000000815260040161020b906108f1565b60405180910390fd5b82600160008673ffffffffffffffffffffffffffffffffffffffff1673ffffffffffffffffffffffffffffffffffffffff168152602001908152602001600020600001908051906020019061026a929190610611565b5081600160008673ffffffffffffffffffffffffffffffffffffffff1673ffffffffffffffffffffffffffffffffffffffff16815260200190815260200160002060010190805190602001906102c1929190610611565b5050505050565b60008054906101000a900473ffffffffffffffffffffffffffffffffffffffff1673ffffffffffffffffffffffffffffffffffffffff163373ffffffffffffffffffffffffffffffffffffffff1614610356576040517f08c379a000000000000000000000000000000000000000000000000000000000815260040161034d906108b1565b60405180910390fd5b6000600160008573ffffffffffffffffffffffffffffffffffffffff1673ffffffffffffffffffffffffffffffffffffffff16815260200190815260200160002060000180546103a5906109c3565b80601f01602080910402602001604051908101604052809291908181526020018280546103d1906109c3565b801561041e5780601f106103f35761010080835404028352916020019161041e565b820191906000526020600020905b81548152906001019060200180831161040157829003601f168201915b505050505090506000815111610469576040517f08c379a0000000000000000000000000000000000000000000000000000000008152600401610460906108d1565b60405180910390fd5b82600160008673ffffffffffffffffffffffffffffffffffffffff1673ffffffffffffffffffffffffffffffffffffffff1681526020019081526020016000206003016000600160008873ffffffffffffffffffffffffffffffffffffffff1673ffffffffffffffffffffffffffffffffffffffff1681526020019081526020016000206002015481526020019081526020016000206001018190555081600160008673ffffffffffffffffffffffffffffffffffffffff1673ffffffffffffffffffffffffffffffffffffffff1681526020019081526020016000206003016000600160008873ffffffffffffffffffffffffffffffffffffffff1673ffffffffffffffffffffffffffffffffffffffff16815260200190815260200160002060020154815260200190815260200160002060000190805190602001906105b2929190610611565b50600160008573ffffffffffffffffffffffffffffffffffffffff1673ffffffffffffffffffffffffffffffffffffffff168152602001908152602001600020600201600081548092919061060690610a26565b919050555050505050565b82805461061d906109c3565b90600052602060002090601f01602090048101928261063f5760008555610686565b82601f1061065857805160ff1916838001178555610686565b82800160010185558215610686579182015b8281111561068557825182559160200191906001019061066a565b5b5090506106939190610697565b5090565b5b808211156106b0576000816000905550600101610698565b5090565b60006106c76106c284610936565b610911565b9050828152602081018484840111156106e3576106e2610b01565b5b6106ee8482856109b4565b509392505050565b60008135905061070581610b9c565b92915050565b600082601f8301126107205761071f610afc565b5b81356107308482602086016106b4565b91505092915050565b60008135905061074881610bb3565b92915050565b60008060006060848603121561076757610766610b0b565b5b6000610775868287016106f6565b935050602084013567ffffffffffffffff81111561079657610795610b06565b5b6107a28682870161070b565b925050604084013567ffffffffffffffff8111156107c3576107c2610b06565b5b6107cf8682870161070b565b9150509250925092565b6000806000606084860312156107f2576107f1610b0b565b5b6000610800868287016106f6565b935050602061081186828701610739565b925050604084013567ffffffffffffffff81111561083257610831610b06565b5b61083e8682870161070b565b9150509250925092565b6000610855600d83610967565b915061086082610b21565b602082019050919050565b6000610878601583610967565b915061088382610b4a565b602082019050919050565b600061089b600b83610967565b91506108a682610b73565b602082019050919050565b600060208201905081810360008301526108ca81610848565b9050919050565b600060208201905081810360008301526108ea8161086b565b9050919050565b6000602082019050818103600083015261090a8161088e565b9050919050565b600061091b61092c565b905061092782826109f5565b919050565b6000604051905090565b600067ffffffffffffffff82111561095157610950610acd565b5b61095a82610b10565b9050602081019050919050565b600082825260208201905092915050565b60006109838261098a565b9050919050565b600073ffffffffffffffffffffffffffffffffffffffff82169050919050565b6000819050919050565b82818337600083830152505050565b600060028204905060018216806109db57607f821691505b602082108114156109ef576109ee610a9e565b5b50919050565b6109fe82610b10565b810181811067ffffffffffffffff82111715610a1d57610a1c610acd565b5b80604052505050565b6000610a31826109aa565b91507fffffffffffffffffffffffffffffffffffffffffffffffffffffffffffffffff821415610a6457610a63610a6f565b5b600182019050919050565b7f4e487b7100000000000000000000000000000000000000000000000000000000600052601160045260246000fd5b7f4e487b7100000000000000000000000000000000000000000000000000000000600052602260045260246000fd5b7f4e487b7100000000000000000000000000000000000000000000000000000000600052604160045260246000fd5b600080fd5b600080fd5b600080fd5b600080fd5b6000601f19601f8301169050919050565b7f4e6f7420746865206f776e657200000000000000000000000000000000000000600082015250565b7f496c2066617574206372656572206c27656c6576650000000000000000000000600082015250565b7f4578697374652064656a61000000000000000000000000000000000000000000600082015250565b610ba581610978565b8114610bb057600080fd5b50565b610bbc816109aa565b8114610bc757600080fd5b5056fea26469706673582212207992f7d502918cacc52cb9fa182aa49e2c5b6a26c9fa164a5532039fec27dc0e64736f6c63430008070033",
					"opcodes": "PUSH1 0x80 PUSH1 0x40 MSTORE CALLVALUE DUP1 ISZERO PUSH2 0x10 JUMPI PUSH1 0x0 DUP1 REVERT JUMPDEST POP PUSH2 0xC00 DUP1 PUSH2 0x20 PUSH1 0x0 CODECOPY PUSH1 0x0 RETURN INVALID PUSH1 0x80 PUSH1 0x40 MSTORE CALLVALUE DUP1 ISZERO PUSH2 0x10 JUMPI PUSH1 0x0 DUP1 REVERT JUMPDEST POP PUSH1 0x4 CALLDATASIZE LT PUSH2 0x36 JUMPI PUSH1 0x0 CALLDATALOAD PUSH1 0xE0 SHR DUP1 PUSH4 0x698BA90E EQ PUSH2 0x3B JUMPI DUP1 PUSH4 0xF4BB08DE EQ PUSH2 0x57 JUMPI JUMPDEST PUSH1 0x0 DUP1 REVERT JUMPDEST PUSH2 0x55 PUSH1 0x4 DUP1 CALLDATASIZE SUB DUP2 ADD SWAP1 PUSH2 0x50 SWAP2 SWAP1 PUSH2 0x74E JUMP JUMPDEST PUSH2 0x73 JUMP JUMPDEST STOP JUMPDEST PUSH2 0x71 PUSH1 0x4 DUP1 CALLDATASIZE SUB DUP2 ADD SWAP1 PUSH2 0x6C SWAP2 SWAP1 PUSH2 0x7D9 JUMP JUMPDEST PUSH2 0x2C8 JUMP JUMPDEST STOP JUMPDEST PUSH1 0x0 DUP1 SLOAD SWAP1 PUSH2 0x100 EXP SWAP1 DIV PUSH20 0xFFFFFFFFFFFFFFFFFFFFFFFFFFFFFFFFFFFFFFFF AND PUSH20 0xFFFFFFFFFFFFFFFFFFFFFFFFFFFFFFFFFFFFFFFF AND CALLER PUSH20 0xFFFFFFFFFFFFFFFFFFFFFFFFFFFFFFFFFFFFFFFF AND EQ PUSH2 0x101 JUMPI PUSH1 0x40 MLOAD PUSH32 0x8C379A000000000000000000000000000000000000000000000000000000000 DUP2 MSTORE PUSH1 0x4 ADD PUSH2 0xF8 SWAP1 PUSH2 0x8B1 JUMP JUMPDEST PUSH1 0x40 MLOAD DUP1 SWAP2 SUB SWAP1 REVERT JUMPDEST PUSH1 0x0 PUSH1 0x1 PUSH1 0x0 DUP6 PUSH20 0xFFFFFFFFFFFFFFFFFFFFFFFFFFFFFFFFFFFFFFFF AND PUSH20 0xFFFFFFFFFFFFFFFFFFFFFFFFFFFFFFFFFFFFFFFF AND DUP2 MSTORE PUSH1 0x20 ADD SWAP1 DUP2 MSTORE PUSH1 0x20 ADD PUSH1 0x0 KECCAK256 PUSH1 0x0 ADD DUP1 SLOAD PUSH2 0x150 SWAP1 PUSH2 0x9C3 JUMP JUMPDEST DUP1 PUSH1 0x1F ADD PUSH1 0x20 DUP1 SWAP2 DIV MUL PUSH1 0x20 ADD PUSH1 0x40 MLOAD SWAP1 DUP2 ADD PUSH1 0x40 MSTORE DUP1 SWAP3 SWAP2 SWAP1 DUP2 DUP2 MSTORE PUSH1 0x20 ADD DUP3 DUP1 SLOAD PUSH2 0x17C SWAP1 PUSH2 0x9C3 JUMP JUMPDEST DUP1 ISZERO PUSH2 0x1C9 JUMPI DUP1 PUSH1 0x1F LT PUSH2 0x19E JUMPI PUSH2 0x100 DUP1 DUP4 SLOAD DIV MUL DUP4 MSTORE SWAP2 PUSH1 0x20 ADD SWAP2 PUSH2 0x1C9 JUMP JUMPDEST DUP3 ADD SWAP2 SWAP1 PUSH1 0x0 MSTORE PUSH1 0x20 PUSH1 0x0 KECCAK256 SWAP1 JUMPDEST DUP2 SLOAD DUP2 MSTORE SWAP1 PUSH1 0x1 ADD SWAP1 PUSH1 0x20 ADD DUP1 DUP4 GT PUSH2 0x1AC JUMPI DUP3 SWAP1 SUB PUSH1 0x1F AND DUP3 ADD SWAP2 JUMPDEST POP POP POP POP POP SWAP1 POP PUSH1 0x0 DUP2 MLOAD EQ PUSH2 0x214 JUMPI PUSH1 0x40 MLOAD PUSH32 0x8C379A000000000000000000000000000000000000000000000000000000000 DUP2 MSTORE PUSH1 0x4 ADD PUSH2 0x20B SWAP1 PUSH2 0x8F1 JUMP JUMPDEST PUSH1 0x40 MLOAD DUP1 SWAP2 SUB SWAP1 REVERT JUMPDEST DUP3 PUSH1 0x1 PUSH1 0x0 DUP7 PUSH20 0xFFFFFFFFFFFFFFFFFFFFFFFFFFFFFFFFFFFFFFFF AND PUSH20 0xFFFFFFFFFFFFFFFFFFFFFFFFFFFFFFFFFFFFFFFF AND DUP2 MSTORE PUSH1 0x20 ADD SWAP1 DUP2 MSTORE PUSH1 0x20 ADD PUSH1 0x0 KECCAK256 PUSH1 0x0 ADD SWAP1 DUP1 MLOAD SWAP1 PUSH1 0x20 ADD SWAP1 PUSH2 0x26A SWAP3 SWAP2 SWAP1 PUSH2 0x611 JUMP JUMPDEST POP DUP2 PUSH1 0x1 PUSH1 0x0 DUP7 PUSH20 0xFFFFFFFFFFFFFFFFFFFFFFFFFFFFFFFFFFFFFFFF AND PUSH20 0xFFFFFFFFFFFFFFFFFFFFFFFFFFFFFFFFFFFFFFFF AND DUP2 MSTORE PUSH1 0x20 ADD SWAP1 DUP2 MSTORE PUSH1 0x20 ADD PUSH1 0x0 KECCAK256 PUSH1 0x1 ADD SWAP1 DUP1 MLOAD SWAP1 PUSH1 0x20 ADD SWAP1 PUSH2 0x2C1 SWAP3 SWAP2 SWAP1 PUSH2 0x611 JUMP JUMPDEST POP POP POP POP POP JUMP JUMPDEST PUSH1 0x0 DUP1 SLOAD SWAP1 PUSH2 0x100 EXP SWAP1 DIV PUSH20 0xFFFFFFFFFFFFFFFFFFFFFFFFFFFFFFFFFFFFFFFF AND PUSH20 0xFFFFFFFFFFFFFFFFFFFFFFFFFFFFFFFFFFFFFFFF AND CALLER PUSH20 0xFFFFFFFFFFFFFFFFFFFFFFFFFFFFFFFFFFFFFFFF AND EQ PUSH2 0x356 JUMPI PUSH1 0x40 MLOAD PUSH32 0x8C379A000000000000000000000000000000000000000000000000000000000 DUP2 MSTORE PUSH1 0x4 ADD PUSH2 0x34D SWAP1 PUSH2 0x8B1 JUMP JUMPDEST PUSH1 0x40 MLOAD DUP1 SWAP2 SUB SWAP1 REVERT JUMPDEST PUSH1 0x0 PUSH1 0x1 PUSH1 0x0 DUP6 PUSH20 0xFFFFFFFFFFFFFFFFFFFFFFFFFFFFFFFFFFFFFFFF AND PUSH20 0xFFFFFFFFFFFFFFFFFFFFFFFFFFFFFFFFFFFFFFFF AND DUP2 MSTORE PUSH1 0x20 ADD SWAP1 DUP2 MSTORE PUSH1 0x20 ADD PUSH1 0x0 KECCAK256 PUSH1 0x0 ADD DUP1 SLOAD PUSH2 0x3A5 SWAP1 PUSH2 0x9C3 JUMP JUMPDEST DUP1 PUSH1 0x1F ADD PUSH1 0x20 DUP1 SWAP2 DIV MUL PUSH1 0x20 ADD PUSH1 0x40 MLOAD SWAP1 DUP2 ADD PUSH1 0x40 MSTORE DUP1 SWAP3 SWAP2 SWAP1 DUP2 DUP2 MSTORE PUSH1 0x20 ADD DUP3 DUP1 SLOAD PUSH2 0x3D1 SWAP1 PUSH2 0x9C3 JUMP JUMPDEST DUP1 ISZERO PUSH2 0x41E JUMPI DUP1 PUSH1 0x1F LT PUSH2 0x3F3 JUMPI PUSH2 0x100 DUP1 DUP4 SLOAD DIV MUL DUP4 MSTORE SWAP2 PUSH1 0x20 ADD SWAP2 PUSH2 0x41E JUMP JUMPDEST DUP3 ADD SWAP2 SWAP1 PUSH1 0x0 MSTORE PUSH1 0x20 PUSH1 0x0 KECCAK256 SWAP1 JUMPDEST DUP2 SLOAD DUP2 MSTORE SWAP1 PUSH1 0x1 ADD SWAP1 PUSH1 0x20 ADD DUP1 DUP4 GT PUSH2 0x401 JUMPI DUP3 SWAP1 SUB PUSH1 0x1F AND DUP3 ADD SWAP2 JUMPDEST POP POP POP POP POP SWAP1 POP PUSH1 0x0 DUP2 MLOAD GT PUSH2 0x469 JUMPI PUSH1 0x40 MLOAD PUSH32 0x8C379A000000000000000000000000000000000000000000000000000000000 DUP2 MSTORE PUSH1 0x4 ADD PUSH2 0x460 SWAP1 PUSH2 0x8D1 JUMP JUMPDEST PUSH1 0x40 MLOAD DUP1 SWAP2 SUB SWAP1 REVERT JUMPDEST DUP3 PUSH1 0x1 PUSH1 0x0 DUP7 PUSH20 0xFFFFFFFFFFFFFFFFFFFFFFFFFFFFFFFFFFFFFFFF AND PUSH20 0xFFFFFFFFFFFFFFFFFFFFFFFFFFFFFFFFFFFFFFFF AND DUP2 MSTORE PUSH1 0x20 ADD SWAP1 DUP2 MSTORE PUSH1 0x20 ADD PUSH1 0x0 KECCAK256 PUSH1 0x3 ADD PUSH1 0x0 PUSH1 0x1 PUSH1 0x0 DUP9 PUSH20 0xFFFFFFFFFFFFFFFFFFFFFFFFFFFFFFFFFFFFFFFF AND PUSH20 0xFFFFFFFFFFFFFFFFFFFFFFFFFFFFFFFFFFFFFFFF AND DUP2 MSTORE PUSH1 0x20 ADD SWAP1 DUP2 MSTORE PUSH1 0x20 ADD PUSH1 0x0 KECCAK256 PUSH1 0x2 ADD SLOAD DUP2 MSTORE PUSH1 0x20 ADD SWAP1 DUP2 MSTORE PUSH1 0x20 ADD PUSH1 0x0 KECCAK256 PUSH1 0x1 ADD DUP2 SWAP1 SSTORE POP DUP2 PUSH1 0x1 PUSH1 0x0 DUP7 PUSH20 0xFFFFFFFFFFFFFFFFFFFFFFFFFFFFFFFFFFFFFFFF AND PUSH20 0xFFFFFFFFFFFFFFFFFFFFFFFFFFFFFFFFFFFFFFFF AND DUP2 MSTORE PUSH1 0x20 ADD SWAP1 DUP2 MSTORE PUSH1 0x20 ADD PUSH1 0x0 KECCAK256 PUSH1 0x3 ADD PUSH1 0x0 PUSH1 0x1 PUSH1 0x0 DUP9 PUSH20 0xFFFFFFFFFFFFFFFFFFFFFFFFFFFFFFFFFFFFFFFF AND PUSH20 0xFFFFFFFFFFFFFFFFFFFFFFFFFFFFFFFFFFFFFFFF AND DUP2 MSTORE PUSH1 0x20 ADD SWAP1 DUP2 MSTORE PUSH1 0x20 ADD PUSH1 0x0 KECCAK256 PUSH1 0x2 ADD SLOAD DUP2 MSTORE PUSH1 0x20 ADD SWAP1 DUP2 MSTORE PUSH1 0x20 ADD PUSH1 0x0 KECCAK256 PUSH1 0x0 ADD SWAP1 DUP1 MLOAD SWAP1 PUSH1 0x20 ADD SWAP1 PUSH2 0x5B2 SWAP3 SWAP2 SWAP1 PUSH2 0x611 JUMP JUMPDEST POP PUSH1 0x1 PUSH1 0x0 DUP6 PUSH20 0xFFFFFFFFFFFFFFFFFFFFFFFFFFFFFFFFFFFFFFFF AND PUSH20 0xFFFFFFFFFFFFFFFFFFFFFFFFFFFFFFFFFFFFFFFF AND DUP2 MSTORE PUSH1 0x20 ADD SWAP1 DUP2 MSTORE PUSH1 0x20 ADD PUSH1 0x0 KECCAK256 PUSH1 0x2 ADD PUSH1 0x0 DUP2 SLOAD DUP1 SWAP3 SWAP2 SWAP1 PUSH2 0x606 SWAP1 PUSH2 0xA26 JUMP JUMPDEST SWAP2 SWAP1 POP SSTORE POP POP POP POP POP JUMP JUMPDEST DUP3 DUP1 SLOAD PUSH2 0x61D SWAP1 PUSH2 0x9C3 JUMP JUMPDEST SWAP1 PUSH1 0x0 MSTORE PUSH1 0x20 PUSH1 0x0 KECCAK256 SWAP1 PUSH1 0x1F ADD PUSH1 0x20 SWAP1 DIV DUP2 ADD SWAP3 DUP3 PUSH2 0x63F JUMPI PUSH1 0x0 DUP6 SSTORE PUSH2 0x686 JUMP JUMPDEST DUP3 PUSH1 0x1F LT PUSH2 0x658 JUMPI DUP1 MLOAD PUSH1 0xFF NOT AND DUP4 DUP1 ADD OR DUP6 SSTORE PUSH2 0x686 JUMP JUMPDEST DUP3 DUP1 ADD PUSH1 0x1 ADD DUP6 SSTORE DUP3 ISZERO PUSH2 0x686 JUMPI SWAP2 DUP3 ADD JUMPDEST DUP3 DUP2 GT ISZERO PUSH2 0x685 JUMPI DUP3 MLOAD DUP3 SSTORE SWAP2 PUSH1 0x20 ADD SWAP2 SWAP1 PUSH1 0x1 ADD SWAP1 PUSH2 0x66A JUMP JUMPDEST JUMPDEST POP SWAP1 POP PUSH2 0x693 SWAP2 SWAP1 PUSH2 0x697 JUMP JUMPDEST POP SWAP1 JUMP JUMPDEST JUMPDEST DUP1 DUP3 GT ISZERO PUSH2 0x6B0 JUMPI PUSH1 0x0 DUP2 PUSH1 0x0 SWAP1 SSTORE POP PUSH1 0x1 ADD PUSH2 0x698 JUMP JUMPDEST POP SWAP1 JUMP JUMPDEST PUSH1 0x0 PUSH2 0x6C7 PUSH2 0x6C2 DUP5 PUSH2 0x936 JUMP JUMPDEST PUSH2 0x911 JUMP JUMPDEST SWAP1 POP DUP3 DUP2 MSTORE PUSH1 0x20 DUP2 ADD DUP5 DUP5 DUP5 ADD GT ISZERO PUSH2 0x6E3 JUMPI PUSH2 0x6E2 PUSH2 0xB01 JUMP JUMPDEST JUMPDEST PUSH2 0x6EE DUP5 DUP3 DUP6 PUSH2 0x9B4 JUMP JUMPDEST POP SWAP4 SWAP3 POP POP POP JUMP JUMPDEST PUSH1 0x0 DUP2 CALLDATALOAD SWAP1 POP PUSH2 0x705 DUP2 PUSH2 0xB9C JUMP JUMPDEST SWAP3 SWAP2 POP POP JUMP JUMPDEST PUSH1 0x0 DUP3 PUSH1 0x1F DUP4 ADD SLT PUSH2 0x720 JUMPI PUSH2 0x71F PUSH2 0xAFC JUMP JUMPDEST JUMPDEST DUP2 CALLDATALOAD PUSH2 0x730 DUP5 DUP3 PUSH1 0x20 DUP7 ADD PUSH2 0x6B4 JUMP JUMPDEST SWAP2 POP POP SWAP3 SWAP2 POP POP JUMP JUMPDEST PUSH1 0x0 DUP2 CALLDATALOAD SWAP1 POP PUSH2 0x748 DUP2 PUSH2 0xBB3 JUMP JUMPDEST SWAP3 SWAP2 POP POP JUMP JUMPDEST PUSH1 0x0 DUP1 PUSH1 0x0 PUSH1 0x60 DUP5 DUP7 SUB SLT ISZERO PUSH2 0x767 JUMPI PUSH2 0x766 PUSH2 0xB0B JUMP JUMPDEST JUMPDEST PUSH1 0x0 PUSH2 0x775 DUP7 DUP3 DUP8 ADD PUSH2 0x6F6 JUMP JUMPDEST SWAP4 POP POP PUSH1 0x20 DUP5 ADD CALLDATALOAD PUSH8 0xFFFFFFFFFFFFFFFF DUP2 GT ISZERO PUSH2 0x796 JUMPI PUSH2 0x795 PUSH2 0xB06 JUMP JUMPDEST JUMPDEST PUSH2 0x7A2 DUP7 DUP3 DUP8 ADD PUSH2 0x70B JUMP JUMPDEST SWAP3 POP POP PUSH1 0x40 DUP5 ADD CALLDATALOAD PUSH8 0xFFFFFFFFFFFFFFFF DUP2 GT ISZERO PUSH2 0x7C3 JUMPI PUSH2 0x7C2 PUSH2 0xB06 JUMP JUMPDEST JUMPDEST PUSH2 0x7CF DUP7 DUP3 DUP8 ADD PUSH2 0x70B JUMP JUMPDEST SWAP2 POP POP SWAP3 POP SWAP3 POP SWAP3 JUMP JUMPDEST PUSH1 0x0 DUP1 PUSH1 0x0 PUSH1 0x60 DUP5 DUP7 SUB SLT ISZERO PUSH2 0x7F2 JUMPI PUSH2 0x7F1 PUSH2 0xB0B JUMP JUMPDEST JUMPDEST PUSH1 0x0 PUSH2 0x800 DUP7 DUP3 DUP8 ADD PUSH2 0x6F6 JUMP JUMPDEST SWAP4 POP POP PUSH1 0x20 PUSH2 0x811 DUP7 DUP3 DUP8 ADD PUSH2 0x739 JUMP JUMPDEST SWAP3 POP POP PUSH1 0x40 DUP5 ADD CALLDATALOAD PUSH8 0xFFFFFFFFFFFFFFFF DUP2 GT ISZERO PUSH2 0x832 JUMPI PUSH2 0x831 PUSH2 0xB06 JUMP JUMPDEST JUMPDEST PUSH2 0x83E DUP7 DUP3 DUP8 ADD PUSH2 0x70B JUMP JUMPDEST SWAP2 POP POP SWAP3 POP SWAP3 POP SWAP3 JUMP JUMPDEST PUSH1 0x0 PUSH2 0x855 PUSH1 0xD DUP4 PUSH2 0x967 JUMP JUMPDEST SWAP2 POP PUSH2 0x860 DUP3 PUSH2 0xB21 JUMP JUMPDEST PUSH1 0x20 DUP3 ADD SWAP1 POP SWAP2 SWAP1 POP JUMP JUMPDEST PUSH1 0x0 PUSH2 0x878 PUSH1 0x15 DUP4 PUSH2 0x967 JUMP JUMPDEST SWAP2 POP PUSH2 0x883 DUP3 PUSH2 0xB4A JUMP JUMPDEST PUSH1 0x20 DUP3 ADD SWAP1 POP SWAP2 SWAP1 POP JUMP JUMPDEST PUSH1 0x0 PUSH2 0x89B PUSH1 0xB DUP4 PUSH2 0x967 JUMP JUMPDEST SWAP2 POP PUSH2 0x8A6 DUP3 PUSH2 0xB73 JUMP JUMPDEST PUSH1 0x20 DUP3 ADD SWAP1 POP SWAP2 SWAP1 POP JUMP JUMPDEST PUSH1 0x0 PUSH1 0x20 DUP3 ADD SWAP1 POP DUP2 DUP2 SUB PUSH1 0x0 DUP4 ADD MSTORE PUSH2 0x8CA DUP2 PUSH2 0x848 JUMP JUMPDEST SWAP1 POP SWAP2 SWAP1 POP JUMP JUMPDEST PUSH1 0x0 PUSH1 0x20 DUP3 ADD SWAP1 POP DUP2 DUP2 SUB PUSH1 0x0 DUP4 ADD MSTORE PUSH2 0x8EA DUP2 PUSH2 0x86B JUMP JUMPDEST SWAP1 POP SWAP2 SWAP1 POP JUMP JUMPDEST PUSH1 0x0 PUSH1 0x20 DUP3 ADD SWAP1 POP DUP2 DUP2 SUB PUSH1 0x0 DUP4 ADD MSTORE PUSH2 0x90A DUP2 PUSH2 0x88E JUMP JUMPDEST SWAP1 POP SWAP2 SWAP1 POP JUMP JUMPDEST PUSH1 0x0 PUSH2 0x91B PUSH2 0x92C JUMP JUMPDEST SWAP1 POP PUSH2 0x927 DUP3 DUP3 PUSH2 0x9F5 JUMP JUMPDEST SWAP2 SWAP1 POP JUMP JUMPDEST PUSH1 0x0 PUSH1 0x40 MLOAD SWAP1 POP SWAP1 JUMP JUMPDEST PUSH1 0x0 PUSH8 0xFFFFFFFFFFFFFFFF DUP3 GT ISZERO PUSH2 0x951 JUMPI PUSH2 0x950 PUSH2 0xACD JUMP JUMPDEST JUMPDEST PUSH2 0x95A DUP3 PUSH2 0xB10 JUMP JUMPDEST SWAP1 POP PUSH1 0x20 DUP2 ADD SWAP1 POP SWAP2 SWAP1 POP JUMP JUMPDEST PUSH1 0x0 DUP3 DUP3 MSTORE PUSH1 0x20 DUP3 ADD SWAP1 POP SWAP3 SWAP2 POP POP JUMP JUMPDEST PUSH1 0x0 PUSH2 0x983 DUP3 PUSH2 0x98A JUMP JUMPDEST SWAP1 POP SWAP2 SWAP1 POP JUMP JUMPDEST PUSH1 0x0 PUSH20 0xFFFFFFFFFFFFFFFFFFFFFFFFFFFFFFFFFFFFFFFF DUP3 AND SWAP1 POP SWAP2 SWAP1 POP JUMP JUMPDEST PUSH1 0x0 DUP2 SWAP1 POP SWAP2 SWAP1 POP JUMP JUMPDEST DUP3 DUP2 DUP4 CALLDATACOPY PUSH1 0x0 DUP4 DUP4 ADD MSTORE POP POP POP JUMP JUMPDEST PUSH1 0x0 PUSH1 0x2 DUP3 DIV SWAP1 POP PUSH1 0x1 DUP3 AND DUP1 PUSH2 0x9DB JUMPI PUSH1 0x7F DUP3 AND SWAP2 POP JUMPDEST PUSH1 0x20 DUP3 LT DUP2 EQ ISZERO PUSH2 0x9EF JUMPI PUSH2 0x9EE PUSH2 0xA9E JUMP JUMPDEST JUMPDEST POP SWAP2 SWAP1 POP JUMP JUMPDEST PUSH2 0x9FE DUP3 PUSH2 0xB10 JUMP JUMPDEST DUP2 ADD DUP2 DUP2 LT PUSH8 0xFFFFFFFFFFFFFFFF DUP3 GT OR ISZERO PUSH2 0xA1D JUMPI PUSH2 0xA1C PUSH2 0xACD JUMP JUMPDEST JUMPDEST DUP1 PUSH1 0x40 MSTORE POP POP POP JUMP JUMPDEST PUSH1 0x0 PUSH2 0xA31 DUP3 PUSH2 0x9AA JUMP JUMPDEST SWAP2 POP PUSH32 0xFFFFFFFFFFFFFFFFFFFFFFFFFFFFFFFFFFFFFFFFFFFFFFFFFFFFFFFFFFFFFFFF DUP3 EQ ISZERO PUSH2 0xA64 JUMPI PUSH2 0xA63 PUSH2 0xA6F JUMP JUMPDEST JUMPDEST PUSH1 0x1 DUP3 ADD SWAP1 POP SWAP2 SWAP1 POP JUMP JUMPDEST PUSH32 0x4E487B7100000000000000000000000000000000000000000000000000000000 PUSH1 0x0 MSTORE PUSH1 0x11 PUSH1 0x4 MSTORE PUSH1 0x24 PUSH1 0x0 REVERT JUMPDEST PUSH32 0x4E487B7100000000000000000000000000000000000000000000000000000000 PUSH1 0x0 MSTORE PUSH1 0x22 PUSH1 0x4 MSTORE PUSH1 0x24 PUSH1 0x0 REVERT JUMPDEST PUSH32 0x4E487B7100000000000000000000000000000000000000000000000000000000 PUSH1 0x0 MSTORE PUSH1 0x41 PUSH1 0x4 MSTORE PUSH1 0x24 PUSH1 0x0 REVERT JUMPDEST PUSH1 0x0 DUP1 REVERT JUMPDEST PUSH1 0x0 DUP1 REVERT JUMPDEST PUSH1 0x0 DUP1 REVERT JUMPDEST PUSH1 0x0 DUP1 REVERT JUMPDEST PUSH1 0x0 PUSH1 0x1F NOT PUSH1 0x1F DUP4 ADD AND SWAP1 POP SWAP2 SWAP1 POP JUMP JUMPDEST PUSH32 0x4E6F7420746865206F776E657200000000000000000000000000000000000000 PUSH1 0x0 DUP3 ADD MSTORE POP JUMP JUMPDEST PUSH32 0x496C2066617574206372656572206C27656C6576650000000000000000000000 PUSH1 0x0 DUP3 ADD MSTORE POP JUMP JUMPDEST PUSH32 0x4578697374652064656A61000000000000000000000000000000000000000000 PUSH1 0x0 DUP3 ADD MSTORE POP JUMP JUMPDEST PUSH2 0xBA5 DUP2 PUSH2 0x978 JUMP JUMPDEST DUP2 EQ PUSH2 0xBB0 JUMPI PUSH1 0x0 DUP1 REVERT JUMPDEST POP JUMP JUMPDEST PUSH2 0xBBC DUP2 PUSH2 0x9AA JUMP JUMPDEST DUP2 EQ PUSH2 0xBC7 JUMPI PUSH1 0x0 DUP1 REVERT JUMPDEST POP JUMP INVALID LOG2 PUSH5 0x6970667358 0x22 SLT KECCAK256 PUSH26 0x92F7D502918CACC52CB9FA182AA49E2C5B6A26C9FA164A553203 SWAP16 0xEC 0x27 0xDC 0xE PUSH5 0x736F6C6343 STOP ADDMOD SMOD STOP CALLER "
				},
				"gasEstimates": {
					"creation": {
						"codeDepositCost": "614400",
						"executionCost": "645",
						"totalCost": "615045"
					},
					"external": {
						"addEleve(address,string,string)": "infinite",
						"addGrade(address,uint256,string)": "infinite"
					}
				},
				"methodIdentifiers": {
					"addEleve(address,string,string)": "698ba90e",
					"addGrade(address,uint256,string)": "f4bb08de"
				}
			},
			"storageLayout": {
				"storage": [
					{
						"astId": 3,
						"contract": "contracts/Gestionnaire_deleve.sol:GestionnaireEleve",
						"label": "owner",
						"offset": 0,
						"slot": "0",
						"type": "t_address"
					},
					{
						"astId": 25,
						"contract": "contracts/Gestionnaire_deleve.sol:GestionnaireEleve",
						"label": "students",
						"offset": 0,
						"slot": "1",
						"type": "t_mapping(t_address,t_struct(Student)20_storage)"
					}
				],
				"types": {
					"t_address": {
						"encoding": "inplace",
						"label": "address",
						"numberOfBytes": "20"
					},
					"t_mapping(t_address,t_struct(Student)20_storage)": {
						"encoding": "mapping",
						"key": "t_address",
						"label": "mapping(address => struct GestionnaireEleve.Student)",
						"numberOfBytes": "32",
						"value": "t_struct(Student)20_storage"
					},
					"t_mapping(t_uint256,t_struct(Grade)8_storage)": {
						"encoding": "mapping",
						"key": "t_uint256",
						"label": "mapping(uint256 => struct GestionnaireEleve.Grade)",
						"numberOfBytes": "32",
						"value": "t_struct(Grade)8_storage"
					},
					"t_string_storage": {
						"encoding": "bytes",
						"label": "string",
						"numberOfBytes": "32"
					},
					"t_struct(Grade)8_storage": {
						"encoding": "inplace",
						"label": "struct GestionnaireEleve.Grade",
						"members": [
							{
								"astId": 5,
								"contract": "contracts/Gestionnaire_deleve.sol:GestionnaireEleve",
								"label": "subject",
								"offset": 0,
								"slot": "0",
								"type": "t_string_storage"
							},
							{
								"astId": 7,
								"contract": "contracts/Gestionnaire_deleve.sol:GestionnaireEleve",
								"label": "grade",
								"offset": 0,
								"slot": "1",
								"type": "t_uint256"
							}
						],
						"numberOfBytes": "64"
					},
					"t_struct(Student)20_storage": {
						"encoding": "inplace",
						"label": "struct GestionnaireEleve.Student",
						"members": [
							{
								"astId": 10,
								"contract": "contracts/Gestionnaire_deleve.sol:GestionnaireEleve",
								"label": "firstName",
								"offset": 0,
								"slot": "0",
								"type": "t_string_storage"
							},
							{
								"astId": 12,
								"contract": "contracts/Gestionnaire_deleve.sol:GestionnaireEleve",
								"label": "lastName",
								"offset": 0,
								"slot": "1",
								"type": "t_string_storage"
							},
							{
								"astId": 14,
								"contract": "contracts/Gestionnaire_deleve.sol:GestionnaireEleve",
								"label": "numberOfGrades",
								"offset": 0,
								"slot": "2",
								"type": "t_uint256"
							},
							{
								"astId": 19,
								"contract": "contracts/Gestionnaire_deleve.sol:GestionnaireEleve",
								"label": "grades",
								"offset": 0,
								"slot": "3",
								"type": "t_mapping(t_uint256,t_struct(Grade)8_storage)"
							}
						],
						"numberOfBytes": "128"
					},
					"t_uint256": {
						"encoding": "inplace",
						"label": "uint256",
						"numberOfBytes": "32"
					}
				}
			},
			"userdoc": {
				"kind": "user",
				"methods": {},
				"version": 1
			}
		}
	}
}