{
	"contracts/test2.sol": {
		"test2": {
			"abi": [
				{
					"inputs": [],
					"name": "getmomBool",
					"outputs": [
						{
							"internalType": "bool",
							"name": "",
							"type": "bool"
						}
					],
					"stateMutability": "view",
					"type": "function"
				},
				{
					"inputs": [
						{
							"internalType": "bool",
							"name": "_monBool",
							"type": "bool"
						}
					],
					"name": "setmonBool",
					"outputs": [],
					"stateMutability": "nonpayable",
					"type": "function"
				}
			],
			"devdoc": {
				"kind": "dev",
				"methods": {},
				"version": 1
			},
			"evm": {
				"assembly": "    /* \"contracts/test2.sol\":24:235  contract test2 { ... */\n  mstore(0x40, 0x80)\n  callvalue\n  dup1\n  iszero\n  tag_1\n  jumpi\n  0x00\n  dup1\n  revert\ntag_1:\n  pop\n  dataSize(sub_0)\n  dup1\n  dataOffset(sub_0)\n  0x00\n  codecopy\n  0x00\n  return\nstop\n\nsub_0: assembly {\n        /* \"contracts/test2.sol\":24:235  contract test2 { ... */\n      mstore(0x40, 0x80)\n      callvalue\n      dup1\n      iszero\n      tag_1\n      jumpi\n      0x00\n      dup1\n      revert\n    tag_1:\n      pop\n      jumpi(tag_2, lt(calldatasize, 0x04))\n      shr(0xe0, calldataload(0x00))\n      dup1\n      0x3e99d91e\n      eq\n      tag_3\n      jumpi\n      dup1\n      0x5f8764d1\n      eq\n      tag_4\n      jumpi\n    tag_2:\n      0x00\n      dup1\n      revert\n        /* \"contracts/test2.sol\":70:148  function getmomBool() public view returns(bool){... */\n    tag_3:\n      tag_5\n      tag_6\n      jump\t// in\n    tag_5:\n      mload(0x40)\n      tag_7\n      swap2\n      swap1\n      tag_8\n      jump\t// in\n    tag_7:\n      mload(0x40)\n      dup1\n      swap2\n      sub\n      swap1\n      return\n        /* \"contracts/test2.sol\":154:232  function setmonBool(bool _monBool) public { ... */\n    tag_4:\n      tag_9\n      0x04\n      dup1\n      calldatasize\n      sub\n      dup2\n      add\n      swap1\n      tag_10\n      swap2\n      swap1\n      tag_11\n      jump\t// in\n    tag_10:\n      tag_12\n      jump\t// in\n    tag_9:\n      stop\n        /* \"contracts/test2.sol\":70:148  function getmomBool() public view returns(bool){... */\n    tag_6:\n        /* \"contracts/test2.sol\":112:116  bool */\n      0x00\n        /* \"contracts/test2.sol\":134:141  monBool */\n      dup1\n      0x00\n      swap1\n      sload\n      swap1\n      0x0100\n      exp\n      swap1\n      div\n      0xff\n      and\n        /* \"contracts/test2.sol\":127:141  return monBool */\n      swap1\n      pop\n        /* \"contracts/test2.sol\":70:148  function getmomBool() public view returns(bool){... */\n      swap1\n      jump\t// out\n        /* \"contracts/test2.sol\":154:232  function setmonBool(bool _monBool) public { ... */\n    tag_12:\n        /* \"contracts/test2.sol\":217:225  _monBool */\n      dup1\n        /* \"contracts/test2.sol\":207:214  monBool */\n      0x00\n      dup1\n        /* \"contracts/test2.sol\":207:225  monBool = _monBool */\n      0x0100\n      exp\n      dup2\n      sload\n      dup2\n      0xff\n      mul\n      not\n      and\n      swap1\n      dup4\n      iszero\n      iszero\n      mul\n      or\n      swap1\n      sstore\n      pop\n        /* \"contracts/test2.sol\":154:232  function setmonBool(bool _monBool) public { ... */\n      pop\n      jump\t// out\n        /* \"#utility.yul\":7:140   */\n    tag_16:\n        /* \"#utility.yul\":50:55   */\n      0x00\n        /* \"#utility.yul\":88:94   */\n      dup2\n        /* \"#utility.yul\":75:95   */\n      calldataload\n        /* \"#utility.yul\":66:95   */\n      swap1\n      pop\n        /* \"#utility.yul\":104:134   */\n      tag_18\n        /* \"#utility.yul\":128:133   */\n      dup2\n        /* \"#utility.yul\":104:134   */\n      tag_19\n      jump\t// in\n    tag_18:\n        /* \"#utility.yul\":7:140   */\n      swap3\n      swap2\n      pop\n      pop\n      jump\t// out\n        /* \"#utility.yul\":146:469   */\n    tag_11:\n        /* \"#utility.yul\":202:208   */\n      0x00\n        /* \"#utility.yul\":251:253   */\n      0x20\n        /* \"#utility.yul\":239:248   */\n      dup3\n        /* \"#utility.yul\":230:237   */\n      dup5\n        /* \"#utility.yul\":226:249   */\n      sub\n        /* \"#utility.yul\":222:254   */\n      slt\n        /* \"#utility.yul\":219:338   */\n      iszero\n      tag_21\n      jumpi\n        /* \"#utility.yul\":257:336   */\n      tag_22\n      tag_23\n      jump\t// in\n    tag_22:\n        /* \"#utility.yul\":219:338   */\n    tag_21:\n        /* \"#utility.yul\":377:378   */\n      0x00\n        /* \"#utility.yul\":402:452   */\n      tag_24\n        /* \"#utility.yul\":444:451   */\n      dup5\n        /* \"#utility.yul\":435:441   */\n      dup3\n        /* \"#utility.yul\":424:433   */\n      dup6\n        /* \"#utility.yul\":420:442   */\n      add\n        /* \"#utility.yul\":402:452   */\n      tag_16\n      jump\t// in\n    tag_24:\n        /* \"#utility.yul\":392:452   */\n      swap2\n      pop\n        /* \"#utility.yul\":348:462   */\n      pop\n        /* \"#utility.yul\":146:469   */\n      swap3\n      swap2\n      pop\n      pop\n      jump\t// out\n        /* \"#utility.yul\":475:584   */\n    tag_25:\n        /* \"#utility.yul\":556:577   */\n      tag_27\n        /* \"#utility.yul\":571:576   */\n      dup2\n        /* \"#utility.yul\":556:577   */\n      tag_28\n      jump\t// in\n    tag_27:\n        /* \"#utility.yul\":551:554   */\n      dup3\n        /* \"#utility.yul\":544:578   */\n      mstore\n        /* \"#utility.yul\":475:584   */\n      pop\n      pop\n      jump\t// out\n        /* \"#utility.yul\":590:800   */\n    tag_8:\n        /* \"#utility.yul\":677:681   */\n      0x00\n        /* \"#utility.yul\":715:717   */\n      0x20\n        /* \"#utility.yul\":704:713   */\n      dup3\n        /* \"#utility.yul\":700:718   */\n      add\n        /* \"#utility.yul\":692:718   */\n      swap1\n      pop\n        /* \"#utility.yul\":728:793   */\n      tag_30\n        /* \"#utility.yul\":790:791   */\n      0x00\n        /* \"#utility.yul\":779:788   */\n      dup4\n        /* \"#utility.yul\":775:792   */\n      add\n        /* \"#utility.yul\":766:772   */\n      dup5\n        /* \"#utility.yul\":728:793   */\n      tag_25\n      jump\t// in\n    tag_30:\n        /* \"#utility.yul\":590:800   */\n      swap3\n      swap2\n      pop\n      pop\n      jump\t// out\n        /* \"#utility.yul\":887:977   */\n    tag_28:\n        /* \"#utility.yul\":921:928   */\n      0x00\n        /* \"#utility.yul\":964:969   */\n      dup2\n        /* \"#utility.yul\":957:970   */\n      iszero\n        /* \"#utility.yul\":950:971   */\n      iszero\n        /* \"#utility.yul\":939:971   */\n      swap1\n      pop\n        /* \"#utility.yul\":887:977   */\n      swap2\n      swap1\n      pop\n      jump\t// out\n        /* \"#utility.yul\":1106:1223   */\n    tag_23:\n        /* \"#utility.yul\":1215:1216   */\n      0x00\n        /* \"#utility.yul\":1212:1213   */\n      dup1\n        /* \"#utility.yul\":1205:1217   */\n      revert\n        /* \"#utility.yul\":1229:1345   */\n    tag_19:\n        /* \"#utility.yul\":1299:1320   */\n      tag_38\n        /* \"#utility.yul\":1314:1319   */\n      dup2\n        /* \"#utility.yul\":1299:1320   */\n      tag_28\n      jump\t// in\n    tag_38:\n        /* \"#utility.yul\":1292:1297   */\n      dup2\n        /* \"#utility.yul\":1289:1321   */\n      eq\n        /* \"#utility.yul\":1279:1339   */\n      tag_39\n      jumpi\n        /* \"#utility.yul\":1335:1336   */\n      0x00\n        /* \"#utility.yul\":1332:1333   */\n      dup1\n        /* \"#utility.yul\":1325:1337   */\n      revert\n        /* \"#utility.yul\":1279:1339   */\n    tag_39:\n        /* \"#utility.yul\":1229:1345   */\n      pop\n      jump\t// out\n\n    auxdata: 0xa26469706673582212205143f8155a4bca2a046e4fc21606c6751e8094b6c246071afe1f55ecddb6456864736f6c63430008070033\n}\n",
				"bytecode": {
					"linkReferences": {},
					"object": "608060405234801561001057600080fd5b50610171806100206000396000f3fe608060405234801561001057600080fd5b50600436106100365760003560e01c80633e99d91e1461003b5780635f8764d114610059575b600080fd5b610043610075565b60405161005091906100f8565b60405180910390f35b610073600480360381019061006e91906100bc565b61008b565b005b60008060009054906101000a900460ff16905090565b806000806101000a81548160ff02191690831515021790555050565b6000813590506100b681610124565b92915050565b6000602082840312156100d2576100d161011f565b5b60006100e0848285016100a7565b91505092915050565b6100f281610113565b82525050565b600060208201905061010d60008301846100e9565b92915050565b60008115159050919050565b600080fd5b61012d81610113565b811461013857600080fd5b5056fea26469706673582212205143f8155a4bca2a046e4fc21606c6751e8094b6c246071afe1f55ecddb6456864736f6c63430008070033",
					"opcodes": "PUSH1 0x80 PUSH1 0x40 MSTORE CALLVALUE DUP1 ISZERO PUSH2 0x10 JUMPI PUSH1 0x0 DUP1 REVERT JUMPDEST POP PUSH2 0x171 DUP1 PUSH2 0x20 PUSH1 0x0 CODECOPY PUSH1 0x0 RETURN INVALID PUSH1 0x80 PUSH1 0x40 MSTORE CALLVALUE DUP1 ISZERO PUSH2 0x10 JUMPI PUSH1 0x0 DUP1 REVERT JUMPDEST POP PUSH1 0x4 CALLDATASIZE LT PUSH2 0x36 JUMPI PUSH1 0x0 CALLDATALOAD PUSH1 0xE0 SHR DUP1 PUSH4 0x3E99D91E EQ PUSH2 0x3B JUMPI DUP1 PUSH4 0x5F8764D1 EQ PUSH2 0x59 JUMPI JUMPDEST PUSH1 0x0 DUP1 REVERT JUMPDEST PUSH2 0x43 PUSH2 0x75 JUMP JUMPDEST PUSH1 0x40 MLOAD PUSH2 0x50 SWAP2 SWAP1 PUSH2 0xF8 JUMP JUMPDEST PUSH1 0x40 MLOAD DUP1 SWAP2 SUB SWAP1 RETURN JUMPDEST PUSH2 0x73 PUSH1 0x4 DUP1 CALLDATASIZE SUB DUP2 ADD SWAP1 PUSH2 0x6E SWAP2 SWAP1 PUSH2 0xBC JUMP JUMPDEST PUSH2 0x8B JUMP JUMPDEST STOP JUMPDEST PUSH1 0x0 DUP1 PUSH1 0x0 SWAP1 SLOAD SWAP1 PUSH2 0x100 EXP SWAP1 DIV PUSH1 0xFF AND SWAP1 POP SWAP1 JUMP JUMPDEST DUP1 PUSH1 0x0 DUP1 PUSH2 0x100 EXP DUP2 SLOAD DUP2 PUSH1 0xFF MUL NOT AND SWAP1 DUP4 ISZERO ISZERO MUL OR SWAP1 SSTORE POP POP JUMP JUMPDEST PUSH1 0x0 DUP2 CALLDATALOAD SWAP1 POP PUSH2 0xB6 DUP2 PUSH2 0x124 JUMP JUMPDEST SWAP3 SWAP2 POP POP JUMP JUMPDEST PUSH1 0x0 PUSH1 0x20 DUP3 DUP5 SUB SLT ISZERO PUSH2 0xD2 JUMPI PUSH2 0xD1 PUSH2 0x11F JUMP JUMPDEST JUMPDEST PUSH1 0x0 PUSH2 0xE0 DUP5 DUP3 DUP6 ADD PUSH2 0xA7 JUMP JUMPDEST SWAP2 POP POP SWAP3 SWAP2 POP POP JUMP JUMPDEST PUSH2 0xF2 DUP2 PUSH2 0x113 JUMP JUMPDEST DUP3 MSTORE POP POP JUMP JUMPDEST PUSH1 0x0 PUSH1 0x20 DUP3 ADD SWAP1 POP PUSH2 0x10D PUSH1 0x0 DUP4 ADD DUP5 PUSH2 0xE9 JUMP JUMPDEST SWAP3 SWAP2 POP POP JUMP JUMPDEST PUSH1 0x0 DUP2 ISZERO ISZERO SWAP1 POP SWAP2 SWAP1 POP JUMP JUMPDEST PUSH1 0x0 DUP1 REVERT JUMPDEST PUSH2 0x12D DUP2 PUSH2 0x113 JUMP JUMPDEST DUP2 EQ PUSH2 0x138 JUMPI PUSH1 0x0 DUP1 REVERT JUMPDEST POP JUMP INVALID LOG2 PUSH5 0x6970667358 0x22 SLT KECCAK256 MLOAD NUMBER 0xF8 ISZERO GAS 0x4B 0xCA 0x2A DIV PUSH15 0x4FC21606C6751E8094B6C246071AFE 0x1F SSTORE 0xEC 0xDD 0xB6 GASLIMIT PUSH9 0x64736F6C6343000807 STOP CALLER "
				},
				"gasEstimates": {
					"creation": {
						"codeDepositCost": "73800",
						"executionCost": "123",
						"totalCost": "73923"
					},
					"external": {
						"getmomBool()": "2457",
						"setmonBool(bool)": "24679"
					}
				},
				"methodIdentifiers": {
					"getmomBool()": "3e99d91e",
					"setmonBool(bool)": "5f8764d1"
				}
			},
			"storageLayout": {
				"storage": [
					{
						"astId": 3,
						"contract": "contracts/test2.sol:test2",
						"label": "monBool",
						"offset": 0,
						"slot": "0",
						"type": "t_bool"
					}
				],
				"types": {
					"t_bool": {
						"encoding": "inplace",
						"label": "bool",
						"numberOfBytes": "1"
					}
				}
			},
			"userdoc": {
				"kind": "user",
				"methods": {},
				"version": 1
			}
		}
	}
}